:020000040800F2
:1000000000000220B9020008BF020008C302000875
:1000100035030008390300088103000800000000D0
:10002000000000000000000000000000612800083F
:10003000CD03000800000000012900086529000820
:10004000E5030008E5030008E5030008E5030008F0
:10005000E5030008E5030008E5030008E5030008E0
:10006000E5030008E5030008E5030008E5030008D0
:10007000E5030008E5030008E5030008E5030008C0
:10008000E5030008E5030008E5030008E5030008B0
:10009000E5030008E5030008E5030008E5030008A0
:1000A000E5030008E5030008E5030008E503000890
:1000B000E5030008E5030008E5030008E503000880
:1000C000E5030008E5030008E5030008E503000870
:1000D000E5030008E5030008E5030008E503000860
:1000E000E5030008E5030008E5030008E503000850
:1000F000E5030008E5030008E5030008E503000840
:10010000E5030008E5030008E5030008E50300082F
:10011000E5030008E5030008E5030008E50300081F
:10012000E5030008E5030008E5030008E50300080F
:10013000E5030008E5030008E5030008E5030008FF
:10014000E5030008E5030008E5030008E5030008EF
:10015000E5030008E5030008E5030008E5030008DF
:10016000E5030008E5030008E5030008E5030008CF
:10017000E5030008E5030008E503000800000000AF
:10018000E5030008E503000800B583B001F0EEF9CF
:10019000384B394A1360394A1360394906E052F83E
:1001A000041B43F8041B9842F9D86146354B994229
:1001B00005D20A684B6801F10C0C8868F3E72E4BF6
:1001C0001A68314B9A4200D0FEE72C4B1A682F4B2D
:1001D0009A42F9D1274B2E4A13602E4A13602E4AB9
:1001E00000E002462D4B9A4209D2104650F8083BD7
:1001F00051689942F5D9002243F8042BF9E7244BC2
:100200001B6813B9234B1B6803B1FEE701F062FAC8
:10021000694601A800F0B4FE214C224BE41AA41058
:10022000002504E01F4B53F8253098470135AC42B8
:10023000F8DC1D4C1D4BE41AA410002504E01B4BF8
:1002400053F8253098470135AC42F8DC0099019805
:1002500001F0DCFF0546164C164BE41AA41004E02E
:10026000013C144B53F824309847002CF8DC284606
:1002700000F022FEBABADECA00000020780000209A
:10028000E8030008000400087856341232547698C7
:100290007C00002040300120000400081004000809
:1002A00010040008100400081004000810040008DE
:1002B000100400081004000808B5FFF765FF00BE31
:1002C000FEE71EF0040F0CBFEFF30880EFF3098088
:1002D0007146414A10472DE9F04182B004460D466F
:1002E000124B5F6BD3F838809E6A1B6B13F0020FC2
:1002F00003D00E4BDB6A002B0BDB0D4801F012F82C
:10030000009543463A463146204601F035F800BE96
:10031000FEE74BF6AB6101F0A9F80028EDD0034BE6
:100320004FF00042DA6202B0BDE8F08100ED00E07B
:100330009865000800BEFEE71EF0040F0CBFEFF347
:100340000880EFF309807146244A10472DE9F041F7
:1003500082B004460D46084B5F6BD3F838809E6A26
:10036000064800F0DFFF009543463A4631462046F6
:1003700001F002F800BEFEE700ED00E0A86500080D
:100380001EF0040F0CBFEFF30880EFF309807146F5
:10039000134A10472DE9F04182B004460D46084B40
:1003A0005F6BD3F838809E6A064800F0BBFF00956B
:1003B00043463A463146204600F0DEFF00BEFEE7E7
:1003C00000ED00E0B465000800BEFEE700BEFEE7F9
:1003D00000BEFEE770470000D70200084D0300088A
:0803E0009503000800BEFEE7D2
:1003E800206D0008000000207C000020206D00081F
:1003F80000000010000000107C00002044300120A4
:080408000000001000000010CC
:1004100010B504460E4B18784FF47A73B3FBF0F323
:100420000C4A1068B0FBF3F000F09CF868B90F2C90
:1004300001D901200AE0002221464FF0FF3000F0F0
:100440004BF8054B1C60002000E0012010BD00BFF0
:10045000040000200C0000200800002008B50B4B11
:100460001A6842F400721A601A6842F480621A60D4
:100470001A6842F480721A60032000F00FF80F200F
:10048000FFF7C6FF02F082F8002008BD003C0240E2
:10049000014B1868704700BF8000002010B504466B
:1004A000C31E042B0FD80A4AD36823F4E0631B044D
:1004B0001B0C240204F4E064234343F0BF6343F4C1
:1004C0000033D36010BD9221024801F00BF9EAE736
:1004D00000ED00E0C063000870B505460C46164606
:1004E0000F2A25D80F2C28D81B4BDB68C3F3022317
:1004F000C3F10701042928BF04211A1D062A21D9A6
:10050000033B4FF0FF3202FA01F124EA01049C4060
:1005100002FA03F326EA03063443002D14DB240118
:10052000E4B205F1604505F5614585F8004370BD0D
:10053000AA210A4801F0D6F8D4E7AB21074801F018
:10054000D1F8D1E70023DCE705F00F052401E4B280
:10055000034B5C55EBE700BF00ED00E0C063000813
:1005600014ED00E00138B0F1807F0BD24FF0E023B2
:100570005861054AF02182F8231000209861072273
:100580001A6170470120704700ED00E010B5044685
:10059000042800D040B9042C0CD04FF0E02213699D
:1005A00023F00403136110BD40F2C911054801F0A6
:1005B00099F8F0E74FF0E022136943F00403136168
:1005C000F1E700BFC0630008002800F0588270B552
:1005D00082B0044603680F2B39D8236813F0010F4B
:1005E0004DD063682BB1B3F5803F02D0B3F5A02F97
:1005F00032D1804B9B6803F00C03042B36D07D4B2B
:100600009B6803F00C03082B2BD06368B3F5803F85
:100610005FD0B3F5A02F62D0764B1A6822F48032F7
:100620001A601A6822F480221A606368002B60D076
:10063000FFF72EFF05466F4B1B6813F4003F1ED1DA
:10064000FFF726FF401B6428F5D903201EE2E821AE
:10065000694801F047F8C0E7ED21674801F042F82A
:10066000C7E7644B5B6813F4800FCED0614B1B6807
:1006700013F4003F03D06368002B00F0028223686C
:1006800013F0020F66D0E368012B41D823691F2BBA
:1006900044D8584B9B6813F00C0F4AD0554B9B68BD
:1006A00003F00C03082B3FD0E368002B77D0534BAB
:1006B00001221A60FFF7ECFE05464E4B1B6813F053
:1006C000020F63D1FFF7E4FE401B0228F5D9032097
:1006D000DCE1484A136843F480331360A5E7454BD7
:1006E0001A6842F480221A601A6842F480321A6052
:1006F0009BE7FFF7CDFE05463E4B1B6813F4003F1A
:10070000BDD0FFF7C5FE401B6428F5D90320BDE12D
:1007100040F21F11384800F0E5FFB7E74FF4907141
:10072000354800F0DFFFB4E7324B5B6813F4800F0D
:10073000BAD1304B1B6813F0020F03D0E368012BD2
:1007400040F0A1812B4A136823F0F803216943EAA2
:10075000C1031360236813F0080F51D06369012BA4
:100760002FD863699BB3254B0122C3F8802EFFF776
:100770008FFE05461F4B5B6F13F0020F40D1FFF752
:1007800087FE401B0228F5D903207FE1194A136830
:1007900023F0F803216943EAC1031360DAE7174B3A
:1007A00000221A60FFF774FE0546124B1B6813F017
:1007B000020FCFD0FFF76CFE401B0228F5D90320B3
:1007C00064E14FF4B0710C4800F08CFFC9E70B4BAB
:1007D0000022C3F8802EFFF75BFE0546054B5B6FDA
:1007E00013F0020F0CD0FFF753FE401B0228F5D97F
:1007F00003204BE100380240F46300080000474248
:10080000236813F0040F7CD0A368012B01D9052BBA
:1008100038D1A34B1B6C13F0805F39D100230193B7
:100820009F4B1A6C42F080521A641B6C03F0805389
:100830000193019B01259B4B1B6813F4807F29D0FA
:10084000A368012B3AD0052B3ED0954B1A6F22F0AE
:1008500001021A671A6F22F004021A67A368002BBC
:100860003CD0FFF715FE06468D4B1B6F13F0020FB1
:1008700045D1FFF70DFE801B41F288339842F3D932
:10088000032003E14FF4C671874800F02BFFC0E757
:100890000025D0E7834A136843F480731360FFF7A1
:1008A000F7FD06467F4B1B6813F4807FC8D1FFF726
:1008B000EFFD801B0228F5D90320E7E0784A136F8B
:1008C00043F001031367C9E7754B1A6F42F0040246
:1008D0001A671A6F42F001021A67BFE7FFF7D8FDE7
:1008E00006466F4B1B6F13F0020F08D0FFF7D0FDC9
:1008F000801B41F288339842F3D90320C6E0002DD3
:100900003BD1A369022B3ED8A369002B00F0BD8028
:10091000634A926802F00C02082A00F09080022BD1
:1009200079D1E36913B1B3F5800F32D1236A3F2B3C
:1009300035D8636A323BB3F5BF7F36D8A36A022B42
:1009400005D0042B03D0062B01D0082B33D1E36A4A
:10095000023B0D2B35D8554B00221A66FFF798FD48
:1009600005464F4B1B6813F0007F30D0FFF790FD1A
:10097000401B0228F5D9032088E0494A136C23F074
:1009800080531364BDE740F2CF11474800F0AAFE40
:10099000BAE74FF4EC71444800F0A4FEC6E740F219
:1009A000D911414800F09EFEC3E74FF4ED713E4877
:1009B00000F098FEC2E740F2DB113B4800F092FEE7
:1009C000C5E74FF4EE71384800F08CFEC3E7E369E9
:1009D000226A1343626A43EA8213A26A5208013A06
:1009E00043EA0243E26A43EA02632D4A53602F4B13
:1009F00001221A66FFF74CFD0446294B1B6813F0D1
:100A0000007F06D1FFF744FD001B0228F5D9032023
:100A10003CE000203AE0254B00221A66FFF738FD43
:100A200004461F4B1B6813F0007F06D0FFF730FD14
:100A3000001B0228F5D9032028E0002026E0012B26
:100A400026D0174B5B6803F48001E269914221D103
:100A500003F03F02216A8A421ED1616A47F6C072E2
:100A60001A408A421AD103F44032A16A8A421FD145
:100A700003F07063E26A93421CD1002006E001207B
:100A80007047012002E0012000E0002002B070BDAC
:100A90000120FBE70120F9E70120F7E70120F5E756
:100AA0000038024000700040F46300080000474234
:100AB0000120EBE70120E9E708B5314B9B6803F023
:100AC0000C03042B57D0082B57D12D4B5A6802F03A
:100AD0003F025B6813F4800F2AD0294B5968C1F399
:100AE000881C4FEA4C11B1EB0C006EEB0E0E4FEA76
:100AF0008E1343EA90638101091A63EB0E03DB0056
:100B000043EA5173C90011EB0C0C43F10003590285
:100B100000234FEA4C2041EADC5104F003F8184B63
:100B20005B68C3F3014301335B00B0FBF3F025E0E6
:100B3000134B5968C1F3881C4FEA4C11B1EB0C0000
:100B40006EEB0E0E4FEA8E1343EA90638101091A91
:100B500063EB0E03DB0043EA5173C90011EB0C0C8D
:100B600043F10003990200234FEA8C2041EA9C5193
:100B700003F0D8FFD3E7034800E0034808BD00BFF7
:100B80000038024000127A000024F400002800F02F
:100B9000F78070B50D4604460368013B0E2B6BD8F9
:100BA000072D6FD87A4B1B6803F00F03AB4208D2B6
:100BB000EBB2774A1370136803F00F03AB4240F0B7
:100BC000E180236813F0020F29D013F0040F04D042
:100BD000704A936843F4E0539360236813F0080F5E
:100BE00004D06C4A936843F460439360A3687BB17C
:100BF000802B0DD0902B0BD0A02B09D0B02B07D081
:100C0000C02B05D0D02B03D0E02B01D0F02B3FD14F
:100C1000604A936823F0F003A1680B439360236854
:100C200013F0010F4ED06368032B37D86368012B94
:100C30003AD09A1E012A3ED9564A126812F0020F83
:100C400000F0A28053498A6822F0030213438B60AC
:100C5000FFF71EFC06464F4B9B6803F00C036268CF
:100C6000B3EB820F2ED0FFF713FC801B41F28833C9
:100C70009842F0D9032076E040F25121464800F036
:100C800031FD8DE740F25221434800F02BFD89E70A
:100C900040F27521404800F025FDB9E74FF41F717F
:100CA0003D4800F01FFDC1E73A4A126812F4003FC8
:100CB000C8D1012057E0374A126812F0007FC1D135
:100CC000012050E0324B1B6803F00F03AB4207D901
:100CD000EAB22F4B1A701B6803F00F03AB4255D1D9
:100CE000236813F0040F14D0E3685BB1B3F5805FA1
:100CF00008D0B3F5A05F05D0B3F5C05F02D0B3F55F
:100D0000E05F31D1234A936823F4E053E1680B4359
:100D10009360236813F0080F15D023695BB1B3F516
:100D2000805F08D0B3F5A05F05D0B3F5C05F02D0F7
:100D3000B3F5E05F1ED1174A936823F4604321693D
:100D400043EAC1039360FFF7B7FE124B9B68C3F3FE
:100D50000313124AD35CD840114B1860114B18682A
:100D6000FFF756FB002070BD40F2BA210A4800F0A0
:100D7000B9FCC7E740F2C121074800F0B3FCDAE74D
:100D8000012070470120EEE70120ECE70120EAE7AF
:100D9000003C024000380240F4630008C4650008CB
:100DA0000C00002008000020014B1868704700BFAD
:100DB0000C00002000B583B08C461946134652B192
:100DC000074A53B10193009263460246054800F07A
:100DD000A9FA00F00BF8044AF3E7034BF2E700BF6F
:100DE00024640008346400080066000808B503485D
:100DF00000F0B2FA012000F05FF800BF6464000860
:100E000008B503460C4A12685AB10B4A10680333FE
:100E100023F003030344094A934206D8064A1360A9
:100E200008BD054A06491160EFE703F0FDFF0C23FA
:100E300003604FF0FF30F3E78400002000FC012046
:100E40004430012030B51324002520462946ABBE8E
:100E50000446204630BD38B5044603F0E5FF05469C
:100E6000FFF7F0FF2860204638BDB0F1FF3F00D00B
:100E7000704708B5FFF7EFFF08BD000010B5044646
:100E80000B4B186808B1836B5BB1132C0CD8094B62
:100E900053F83430B3F1FF3F08D0064800EBC400EC
:100EA00010BD04F01FF8F0E70020F9E70020F7E795
:100EB000140000201001002000B530B9044D1824A2
:100EC00020462946ABBE0446FEE7024DF7E700BFC9
:100ED00026000200230002002DE9F04184B0234FD8
:100EE00001970326039600230293012401AD2046B7
:100EF0002946ABBE80461E4BC3F80080019703967F
:100F00000423029320462946ABBE8046194BC3F802
:100F10000080019703960823029320462946ABBE22
:100F20000446154B1C60B4F1FF3F01D000230AE0DA
:100F3000104B1A68104B1A60F8E7104A4FF0FF3157
:100F400042F833100133132BF7DD0C4B084A1268BB
:100F50001A6000225A60074909689960DA600649F8
:100F6000096819615A6104B0BDE8F081786400082D
:100F7000080100200C0100200401002010010020C5
:100F80002DE9F04383B0814688462A4B00934F23D6
:100F9000019315276C4638462146ABBE0746AFBBCA
:100FA000244B002283F84F20009A3E463C463D46A3
:100FB00007E001321E46204B43F82520013501246D
:100FC000013292F90030FBB164B91C49595600292D
:100FD000F6DB092BF4D0082D16DC222BE9D0272BC9
:100FE000E9D1E6E736B19E42EAD1002313703E46CE
:100FF0003C46E5E711495956002901DB092BDFD1B1
:10100000002313703446DBE73DB900E00025094BAF
:1010100000221A70084A13600135074B002243F87A
:101020002520C9F80050C8F80030FFF755FF03B07D
:10103000BDE8F08388000020D80000200D6B000878
:1010400030B585B0019002910392062401AD20468F
:101050002946ABBE04462046FFF707FF05B030BD6A
:1010600070B50D461446FFF709FF68B106462246E3
:1010700029460068FFF7E4FFB0F1FF3F03D0201AD4
:1010800073680344736070BD03F0CEFE09230360F0
:101090004FF0FF30F7E7F0B583B00C461546FFF789
:1010A000EDFEC0B10646022D1CD8012D21D0022D27
:1010B00029D03368009301940A256F4628463946A3
:1010C000ABBE05462846FFF7D0FE00282BDB746038
:1010D000204603B0F0BD03F0A7FE092303604FF0E4
:1010E000FF30F6E703F0A0FE162303604FF0FF3059
:1010F000EFE74368E418DCD503F096FE162303609F
:101100004FF0FF30E5E7036800930C256F46284653
:101110003946ABBE05462846FFF7A7FEB0F1FF3FB4
:10112000D7D00444C5E74FF0FF30D2E708B5FFF74A
:10113000B2FF08BD30B585B001900291039205243D
:1011400001AD20462946ABBE04462046FFF78DFE82
:1011500005B030BD70B50D461446FFF78FFE70B177
:101160000646224629460068FFF7E4FF031E11DB0E
:10117000E01A7268024472609C4207D070BD03F0AE
:1011800053FE092303604FF0FF30F7E70020FFF71D
:1011900062FEF3E74FF0FF30F0E730B583B0019027
:1011A000022401AD20462946ABBE04462046FFF787
:1011B0005CFE03B030BD000038B50446FFF75EFEAC
:1011C00080B10546601E012804D80C4B9A681B6943
:1011D0009A420ED02868FFF7E0FF10B94FF0FF33B6
:1011E0002B6038BD03F020FE092303604FF0FF3071
:1011F000F7E74FF0FF332B600020F2E710010020EB
:1012000070B50C46FFF73AFEA8B10646636843F492
:10121000005363604FF48063A3640C252846314675
:10122000ABBE05462846FFF720FEB0F1FF3F01D0D8
:101230002061002070BD03F0F7FD092303604FF02B
:10124000FF30F7E738B505460C4658220021204606
:1012500003F0F6FE21462846FFF7D2FF38BDF0B571
:101260000C4650B106460027112528463946ABBE2C
:101270000546EB1735607360B76014B10023236037
:1012800063600020F0BD38B5FFF7F8FD80B105467A
:10129000092420462946ABBE04462046012C06D030
:1012A00003F0C2FD0446FFF7CDFD2060002038BDED
:1012B00003F0BAFD092303600020F8E72DE9F043AD
:1012C00085B004460F46435633BB042528462146C5
:1012D000ABBE0446384605B0BDE8F08314F901CB37
:1012E00004AA1A4402F810CC0133AB42F6D304AA84
:1012F0001344002203F8102C4FF00408E94640463E
:101300004946ABBE8046761B002EE3D03546102EF4
:1013100028BF10250023E8E70E46F5E708B5FFF7DC
:10132000CDFF08BD0FB400B583B004AB53F8042B58
:1013300001938021074804F08BF8002804DC03B0F7
:101340005DF804EB04B0704701460248FFF7E6FF82
:10135000F5E700BFB001002010B5044604F029F8FD
:1013600001462046FFF7DAFF01210248FFF7D6FFCA
:1013700010BD00BFE0690008F8B504460D461746E9
:101380001E462748FFF7CEFF21682648FFF7CAFF11
:1013900061682548FFF7C6FFA1682448FFF7C2FF30
:1013A000E1682348FFF7BEFF21692248FFF7BAFF33
:1013B00061692148FFF7B6FFA1692048FFF7B2FF36
:1013C000E1691F48FFF7AEFF1E48FFF7ABFF294654
:1013D0001D48FFF7A7FF1D4CE16A1D48FFF7A2FF5C
:1013E000216B1C48FFF79EFFE16B1B48FFF79AFF3C
:1013F00015F0800F0AD115F4004F0CD11748FFF7F4
:1014000091FF06991648FFF78DFFF8BD394615483C
:10141000FFF788FFEFE731461348FFF783FFEDE75B
:101420007C6400088C6400089C640008AC640008BC
:10143000BC640008CC640008DC640008EC640008AC
:10144000FC6400080C6500081865000800ED00E069
:1014500028650008386500084865000878650008B8
:1014600080650008586500086865000838B583691C
:101470001B888B4201D0002038BD044603684568B4
:10148000013B302B69D8DFE803F046211C1C5E309D
:10149000332D1919681919191919361924681927BA
:1014A00068396868686868686868686868686868EB
:1014B0006868686868686868681919004FF0FF33E1
:1014C0000360A3690233A3610120D5E70023036011
:1014D000F7E700230360F4E700232B606B60AB6049
:1014E000EB60EEE700230360EBE7AB680360E8E73F
:1014F00000230360E5E700230360E2E7BFF34F8FBB
:101500001749CA6802F4E062164B1343CB60BFF37D
:101510004F8F00BFFDE71449286803F040FF40B932
:101520006B6813B901232360CBE7042B05D0082B8C
:1015300006D04FF0FF332360C3E702232360C0E7E8
:1015400003232360BDE72B68023B012B02D9AB6864
:101550000360B6E700230360B3E700208CE700BF19
:1015600000ED00E00400FA057864000808B500F01A
:1015700009F8024A024B9A6008BD00BF000000084B
:1015800000ED00E0024B4FF000629A60704700BF30
:1015900000ED00E0224B9B6803F00C03042B14D0F9
:1015A000082B16D01BB11F4B1F4A1A6002E01D4BBF
:1015B0001D4A1A601A4B9B68C3F303131B4AD15C84
:1015C000184A1368CB4013607047164B184A1A60CC
:1015D000F0E7134B59685A6802F03F0211F4800F8C
:1015E00013D0134BB3FBF2F30D4A5268C2F38812C7
:1015F00002FB03F30A4A5268C2F30142013252006D
:10160000B3FBF2F3074A1360D4E7074BB3FBF2F3E3
:10161000034A5268C2F3881202FB03F3EAE700BFF1
:10162000003802400C0000200024F400C4650008CB
:1016300000127A0030B595B000240194224B1A6C48
:1016400042F080521A641B6C03F080530193019B9B
:1016500002941E4B1A6842F480421A601B6803F41D
:1016600080430293029B012308934FF48033099334
:101670004FF480030F93082310934FF4A873119332
:1016800002251295072313930E9508A8FEF79CFFD9
:101690000F230393049505944FF4A05306934FF43E
:1016A00080530793052103A8FFF770FAFFF77CFB2F
:1016B000074BA3FB00308009FEF754FF0420FEF720
:1016C00065FF15B030BD00BF00380240007000401B
:1016D000D34D621008B5FEF7C1FEFFF7ABFFFFF771
:1016E00059FF08BD08B50A4601460248FFF71AFE31
:1016F000FEE700BFD465000808B50021024B18685A
:1017000001F09CFC08BD00BF7002002000B583B052
:1017100002F07FFD00230193012810D0022814D08D
:10172000019B4BB14FF0E0234FF08052C3F8042DE2
:10173000BFF34F8FBFF36F8F03B05DF804FB01A9B8
:10174000054B186801F07AFCEAE701A9034B186819
:1017500001F074FCE4E700BF3802002048020020DA
:1017600038B505460C4603F089FD611B0131B0FB1D
:10177000F1F301FB1300284438BD000010B584B01C
:10178000044602F046FD0023039301281BD00228E3
:101790001FD0C8216420FFF7E3FF02460023009317
:1017A00003AB0921204602F0C7FB039B4BB14FF06E
:1017B000E0234FF08052C3F8042DBFF34F8FBFF3E7
:1017C0006F8F04B010BD03A9054B186801F036FCFB
:1017D000DFE703A9034B186801F030FCD9E700BF2D
:1017E00040020020500200200F4B1B68834213D0A0
:1017F0000E4B1B68834211D00D4B1B6883420FD0E8
:101800000C4B1B6883420DD00B4B1B68834201D0ED
:10181000FF2070470020704701207047022070476A
:1018200003207047042070473C0200204C02002037
:101830005802002060020020680200202DE9F04FCD
:101840008DB006468A48FFF787FD00230B930A9365
:101850003268884B1B689A4213D00021706801F0EF
:1018600035FA4FF00009CDF82490CDF82090CDF84E
:101870001090CDF81C90CA46CDF81890CDF8149071
:1018800006E0322002F024F8E7E77B48FFF764FD2A
:10189000B56801F007FF02460024009423460121A9
:1018A000284602F049FB23464FF0FF3221463069BB
:1018B00001F01DFC23464FF0FF3221466F480068BF
:1018C00001F015FC142000F0C7FE0B900028DCD0BE
:1018D0007368036004210320FFF742FF03285CD0F4
:1018E000042863D00B9B9C6840F2DC514FF4FA70E3
:1018F000FFF736FF0B9D80B2A881103800F0ACFED8
:1019000028610B9B1B69002B59D0142000F0A4FE0A
:1019100005460B9B9889103800F09EFE28610B9BB2
:101920009A89103A196903F07DFB0B9B1868596876
:101930009A68DB6828606960AA60EB607068FFF7EE
:1019400053FF07460B9BB3F80CB05868FFF74CFFEA
:1019500003461FFA84F8CDF800805A4639464848B5
:10196000FFF7E0FC00234FF0FF320BA94548006869
:1019700001F023FA012829D07068FFF735FF0146EE
:101980004148FFF7CFFC00231A4619463B48006840
:1019900001F013FA00270397C6E00B9B3B4A12683D
:1019A0005A60059A013205929A609BE70B9B384A70
:1019B00012685A60069A013206929A6092E7354898
:1019C000FFF7CAFC0B9800F0C9FE61E70B9F38686F
:1019D000FFF70AFF04467868FFF706FF0246214634
:1019E0002D48FFF79FFC0AF1010A1FFA8AFAAB891A
:1019F000089A1A440892C6E7A368059A93422FD220
:101A00001E4C00234FF0FF321946206801F06FFB97
:101A10000A9B186900F0A2FE0A9800F09FFE0023BE
:101A20001A461946206801F0C8F97CE0A368069AB6
:101A3000934219D2114C00234FF0FF32194620680F
:101A400001F055FB0A9B186900F088FE0A9800F027
:101A500085FE00231A461946206801F0AEF962E0BF
:101A600005930123039386E006930123039382E009
:101A7000046600085402002020660008300200209E
:101A800054660008680200209C6600085802002086
:101A9000600200203C660008786600087068FFF766
:101AA000A3FE04466868FFF79FFE02467B1C009376
:101AB000434621468148FFF735FC8148FFF74CFC3F
:101AC000804C00234FF0FF321946206801F00FFBD5
:101AD000142000F0C1FD83460B90A889103800F057
:101AE000BBFDCBF81000AA89103A29690B9B186935
:101AF00003F098FA0B9BD5F800C06868A968EA68FB
:101B0000C3F800C058609960DA6000234FF0FF32DC
:101B10000BA96D48006801F050F900231A461946D8
:101B2000206801F04AF90137032F27DCD6F80CB002
:101B300001F0B8FD024600240094234601215846D6
:101B400002F0FAF923464FF0FF322146706901F0A6
:101B5000CEFA234622460AA9706801F0C8FA012885
:101B60009CD10A9C2068FFF73FFE03283FF444AF56
:101B700004283FF45BAF039B002BD4D0039B002BC6
:101B800059D17068FFF730FE01465048FFF7CAFB95
:101B9000AB8999444B4C00234FF0FF321946206823
:101BA00001F0A5FA286900F0D9FD284600F0D6FD1D
:101BB000049B01339BB2049300231A461946206804
:101BC00001F0FBF87068FFF70FFE0146404803F094
:101BD00099FA51463F4803F095FA07993E4803F0B9
:101BE00091FA04993D4803F08DFA08993C4803F0B6
:101BF00089FA09993B4803F085FA49463A4803F0C7
:101C000081FA41F204039A457FF442AE01F04AFDA5
:101C1000364C20603648FFF79FFB2168354B1B6828
:101C2000C91A354BA3FB013189093448FFF77AFB08
:101C300001F030FD2CE67068FFF7D6FD0446DDF8B4
:101C40002880D8F80000FFF7CFFD0746D8F8040039
:101C5000FFF7CAFD0346D8F8082000923A4621460D
:101C60002748FFF75FFB079B01339BB20793AB89C4
:101C7000099A1A440992134C00234FF0FF32194677
:101C8000206801F034FA286900F068FD284600F069
:101C900065FD0A9B186900F061FD0A9800F05EFD81
:101CA00000231A461946206801F087F80021706861
:101CB00001F00CF81348FFF74FFB83E7B866000804
:101CC000EC6600083002002068020020646700080B
:101CD00098670008C0670008D8670008F467000824
:101CE00010680008206800083868000878020020A2
:101CF0004C6800087C020020D34D62106C6800081C
:101D00000067000834670008F0B587B005465748FB
:101D1000FFF722FB0026059604963146686800F01E
:101D2000D5FF374609E0524803F072FA059B18695F
:101D300000F014FD059800F011FD00234FF0FF3274
:101D400005A9686801F0D3F90128F6D1059C002C9B
:101D5000F3D02068FFF748FDFF28E4D06068FFF764
:101D600043FDFF28DFD0EC4620686168A268E36885
:101D7000ACE80F003F4C00234FF0FF3219462068BB
:101D800001F0B5F9059B186900F0E8FC059800F032
:101D9000E5FC00231A461946206801F00EF86B682E
:101DA000019A9A42C9D10098FFF71EFD012839D047
:101DB00002283CD000234FF0FF3219462D4800681E
:101DC00001F095F9142000F047FC0490002833D06E
:101DD0006B680360049C009B6360029BA3602823E4
:101DE000A381182000F038FC2061049C23693BB3D8
:101DF0002068FFF7F9FCFF2829D06068FFF7F4FCA2
:101E0000FF2824D000234FF0FF3204A91A480068AD
:101E100000F0D3FF00231A4619461648006800F068
:101E2000CCFF8AE7029BB342C4D91E46C2E7029B9D
:101E3000BB42BFD91F46BDE71048FFF78DFA7CE7CC
:101E40000F48FFF789FA049800F088FC75E7686886
:101E5000FFF7CAFC01460B4803F054F900231A4669
:101E600019460448006800F0A8FF66E78C6800087F
:101E7000A86800083002002068020020D06800082E
:101E8000E86800080469000838B504460D460022D9
:101E9000002302F009FED0B90022114B204629464A
:101EA00002F00CFE08B1002038BD03F0E7F902F0A3
:101EB00015FB09A3D3E9002302F0A4FC02460B465C
:101EC0002046294602F004FE18B10120ECE700206C
:101ED000EAE70020E8E700BF0000C0FFFFFFDF41A6
:101EE0000000F03F0000000070B584B00646B8481E
:101EF000FFF732FA00210391706800F0E7FE09E075
:101F0000B44803F085F9039B186900F027FC039897
:101F100000F024FC00234FF0FF3203A9AE4C2068F0
:101F200001F0E5F80446039D2868FFF75DFCFF28F3
:101F3000E6D06868FFF758FCFF28E1D0012C0DD0EF
:101F4000012C00F08680A54803F062F9039B186914
:101F500000F004FC039800F001FCDBE7AB89282BC0
:101F6000EED197A1D1E90001FFF78EFF012857D0EC
:101F7000039B988902F0B2FA0022994B02F018FBF9
:101F800091A3D3E9002302F03DFC0022954B02F01F
:101F90000FFB02F0A7FD4FF47A7200FB02F2924BA6
:101FA000A3FB023292090024009423460532042147
:101FB000B06801F0C1FFB56801F074FB02460094FF
:101FC00023460121284601F0B7FF23464FF0FF3298
:101FD0002146306901F08BF82346224603A9039875
:101FE000406800F0EAFE012894D0804803F010F920
:101FF0007F4C00234FF0FF321946206801F077F83C
:10200000039B186900F0AAFB039800F0A7FB0023CC
:102010001A461946206800F0D0FE0023039379E7A2
:10202000734C00234FF0FF321946206801F05FF82F
:10203000039B186900F092FB039800F08FFB0023CC
:102040001A461946206800F0B8FE6A4803F0E0F826
:1020500060E75BA1D1E90001FFF716FF012848D036
:1020600000200021FFF710FF01285BD0039B988917
:1020700002F034FA00225A4B02F09AFA52A3D3E942
:10208000002302F0BFFB0022564B02F091FA02F04F
:1020900029FD4FF47A7200FB02F2534BA3FB02328C
:1020A000920900240094234605320421B06801F00F
:1020B00043FFB56801F0F6FA024600942346012179
:1020C000284601F039FF23464FF0FF3221463069A0
:1020D00001F00DF82346224603A90398406800F05A
:1020E0006CFE01283FF416AF4348FFF71BF9039439
:1020F00010E73F4C00234FF0FF321946206800F0F4
:10210000F6FF039B186900F029FB039800F026FBFB
:1021100000231A461946206800F04FFE3748FFF7A3
:1021200001F9F7E63648FFF7FDF8039B988902F0BE
:10213000D5F900222A4B02F03BFA23A3D3E900236E
:1021400002F060FB0022274B02F032FA02F0CAFCD8
:102150004FF47A7200FB02F2234BA3FB0232920986
:1021600000240094234605320421B06801F0E4FE07
:10217000B56801F097FA02460094234601212846EB
:1021800001F0DAFE23464FF0FF322146306900F0BD
:10219000AEFF039B5B681B4A106883420DD000238F
:1021A0001A4603A900F009FE01283FF4B3AE124815
:1021B000FFF7B8F800230393ACE6134B1868EEE77B
:1021C0007B14AE47E17A843F00000000006AF840CB
:1021D000206900083C69000868020020186A0008AD
:1021E0000000204000408F40D34D62107869000805
:1021F0003002002060690008E4690008A86900084E
:10220000C469000858020020600200202DE9F04F48
:10221000A1B0002003F0D6F803F002F8AA4C009415
:10222000012300226421A94801F06CFEDFF834B3D9
:10223000CBF800000094022300226421A44801F09E
:1022400061FEA44F3860A44B0093012300224FF499
:10225000FA71A24801F056FEA14B1860A14C0094FF
:10226000012300229621A04801F04CFEDFF8F8A2DD
:10227000CAF8000000940223002296219B4801F036
:1022800041FE9B4A1060002204210A2000F071FDEB
:1022900098490860002204210A2000F06AFD964C4B
:1022A0002060002204210A2000F063FD934D286085
:1022B000002204210A2000F05CFD914E30600022D3
:1022C0000421142000F055FD8E4B186003220021DC
:1022D000012000F04EFDDFF89492C9F800000023C1
:1022E0001A46194600F003FF03220021012000F0E6
:1022F00040FD854E306000231A46194600F0F7FE77
:10230000012000F02AFE814B186000231A4619466E
:1023100000F053FD03220021012000F02AFD7C4C37
:10232000206000231A46194600F0E1FE012000F06B
:1023300014FE784B186000231A46194600F03DFD44
:10234000012000F00AFE744B186000231A4619465B
:1023500000F0CDFE03220021012000F00AFDDFF88D
:102360001082C8F8000000231A46194600F0BFFE8C
:1023700003220021012000F0FCFC684D28600023AE
:102380001A46194600F0B3FE654B1B681A9359496B
:102390000A681B92DBF800301C93DAF800301D93BA
:1023A000D9F800301E93D8F800301F935D4B1B689E
:1023B00014935149096815913B6816934C4803687A
:1023C0001793336818932B681993574B1B680E9318
:1023D0004A4D2D680F950023109311931293139378
:1023E000524800680890464E366809960A930B9347
:1023F0000C930D934E480068029042480068039089
:10240000374F3F6804970593246806940793002A82
:1024100053D0002951D0002D4FD0002E4DD0002890
:102420004BD0444D3E4B0193012600961AAB4FF41E
:1024300000724149284601F0B9F80446394B01932E
:10244000009614AB4FF400723C49284601F0AEF8F8
:1024500004403B4D344B0193022600960EAB4FF4E3
:1024600000723849284601F0A1F804402F4B01932F
:10247000009608AB4FF400723349284601F096F8F5
:1024800004402B4B01930323009302AB4FF40072E3
:102490002E492F4801F08AF80440012C09D12D481B
:1024A00002F0B6FE01F0FEF82B4B186001F0B0F818
:1024B00006E02A4802F0ACFE02E02948FEF74CFF95
:1024C000002021B0BDE8F08F7D1700083C6A0008AD
:1024D0004C6A00088C020020F91600085C6A0008AB
:1024E000900200200D170008706A00087C6A00083E
:1024F000880200203C0200204C02002058020020EC
:1025000060020020680200205002002034020020F7
:1025100070020020300200207402002048020020D7
:1025200044020020540200205C02002064020020CB
:102530006C0200203D180008886A0008906A0008B4
:10254000091D0008986A0008A06A0008A86A000827
:10255000E91E0008B06A00087C020020C46A000876
:10256000DC6A000884020020800200204002002073
:1025700038020020FEE7FEE700B583B000F026F940
:102580000190019B03B05DF804FB704770470000A9
:10259000124A12F0070F1ED0D11D21F00701C1F51C
:1025A000963313440A460E480260002141601344EA
:1025B000083B23F007030B48036059601960991A20
:1025C00051601360084B1960084B1960084B4FF0BD
:1025D00000421A6070474FF49633E4E798020020F7
:1025E000A42E012094020020A02E01209C2E012068
:1025F000982E0120164B1A461B688342FBD3516864
:1026000002EB010C844509D0416800EB010C6345E5
:1026100009D00360904219D01060704740680144AF
:1026200051601046F0E710B40A4C2468A3420BD066
:102630005B681944416013681B680360904200D0D6
:1026400010605DF8044B70470460F7E7704700BF07
:10265000A42E01209402002070B5054601F01AF85E
:10266000394B1B689BB1394B1B681D4212D135B1E8
:10267000083515F0070F02D025F007050835D5B14C
:10268000334B1B68AB421AD3324A14681DE0FFF784
:102690007FFFE8E701F0A0F80026FFF76BFF16F0D8
:1026A000070F4FD04FF0500383F31188BFF36F8FA4
:1026B000BFF34F8FFEE701F08FF80026EDE701F042
:1026C0008BF80026E9E722461C466368AB4202D23B
:1026D0002368002BF7D11C4B1B68A34214D016684B
:1026E00008362368136063685B1B102B14D96019CC
:1026F00010F0070F0CD04FF0500383F31188BFF395
:102700006F8FBFF34F8FFEE701F066F80026C4E736
:1027100043606560FFF76EFF62680D490B689B1AA6
:102720000B600D4909688B4201D20B490B60074BC6
:102730001B68134363600023236001F04DF8002EF3
:10274000ADD1AAE7304670BD94020020982E01203A
:102750009C2E0120A42E0120A02E012080B338B58C
:102760000446A0F1080550F8043C164A12681342CA
:1027700008D14FF0500383F31188BFF36F8FBFF37D
:102780004F8FFEE750F8081C41B14FF0500383F320
:102790001188BFF36F8FBFF34F8FFEE723EA020369
:1027A00040F8043C00F076FF54F8041C064A136815
:1027B0000B4413602846FFF71DFF01F00DF838BDEC
:1027C000704700BF982E01209C2E0120014B1868F5
:1027D000704700BF9C2E01200B4B1B68B3F1FF3FDD
:1027E00008D04FF0500383F31188BFF36F8FBFF30E
:1027F0004F8FFEE74FF0500383F31188BFF36F8FC5
:10280000BFF34F8FFEE700BF1000002006480068AE
:10281000006880F3088862B661B6BFF34F8FBFF3DC
:102820006F8F00DF00BF000008ED00E04FF0807305
:1028300040F8043C21F0010140F8081C054B40F829
:102840000C3C40F8202C6FF0020340F8243C443844
:10285000704700BFD92700080000000000000000FA
:10286000074B19680868B0E8F04F80F30988BFF398
:102870006F8F4FF0000080F311887047AFF3008036
:10288000F42E01204FF0500383F31188BFF36F8FB4
:10289000BFF34F8F0B4A136801331360012B00D035
:1028A00070474FF0E023D3F8043D13F0FF0FF7D04B
:1028B0004FF0500383F31188BFF36F8FBFF34F8F37
:1028C000FEE700BF10000020094B1B6843B94FF022
:1028D000500383F31188BFF36F8FBFF34F8FFEE771
:1028E000013B034A13600BB983F31188704700BFA3
:1028F00010000020000000000000000000000000A8
:10290000EFF30980BFF36F8F154B1A681EF0100F9D
:1029100008BF20ED108A20E9F04F10604DF8043D0B
:102920004FF0500080F31188BFF34F8FBFF36F8FCC
:1029300001F03AF84FF0000080F3118808BC1968E4
:102940000868B0E8F04F1EF0100F08BFB0EC108A16
:1029500080F30988BFF36F8F704700BFAFF300802B
:10296000F42E012008B54FF0500383F31188BFF314
:102970006F8FBFF34F8F00F09BFE28B14FF0E02325
:102980004FF08052C3F8042D002383F3118808BD53
:10299000064B1B68064AA2FB03239B09013B4FF031
:1029A000E022536107231361704700BF0C00002031
:1029B000D34D62104FF0E023D3F8002D344B9A42F0
:1029C0001CD04FF0E023D3F8002D324B9A421ED09A
:1029D00010B582B0304B1A78D2B20192FF221A7031
:1029E0001B78DBB28DF803309DF8033003F0500301
:1029F0002A4A13702A4B07221A601BE04FF050033B
:102A000083F31188BFF36F8FBFF34F8FFEE74FF053
:102A1000500383F31188BFF36F8FBFF34F8FFEE72F
:102A20001F4A1368013B13609DF803305B00DBB263
:102A30008DF803309DF8033013F0800FF0D1184A61
:102A400013681B02136003F4E0631360019BDBB2A5
:102A5000114A13704FF0E024D4F8203D43F4700382
:102A6000C4F8203DD4F8203D43F07043C4F8203D25
:102A7000FFF78EFF0B4B00221A60D4F8343F43F06F
:102A80004043C4F8343FFFF7C1FEFFF7A5FE00BF87
:102A900071C20F4170C20F4100E400E0AC2E012072
:102AA000B02E012010000020EFF305830F2B0FD96B
:102AB000114A9B5CDBB2114A12789A4208D94FF056
:102AC000500383F31188BFF36F8FBFF34F8FFEE77F
:102AD0004FF0E023D3F80C3D03F4E063084A12689A
:102AE000934208D94FF0500383F31188BFF36F8FDF
:102AF000BFF34F8FFEE77047F0E300E0AC2E0120FC
:102B0000B02E012000F1080343604FF0FF328260D5
:102B1000C3600361002303607047002303617047B3
:102B200043684B609A688A605160996008610368E5
:102B300001330360704730B40D68B5F1FF3F11D029
:102B400000F108031C465B681A68AA42FAD9636858
:102B50004B6099608C6061600861036801330360B9
:102B600030BC70470469F2E70369416882688A6093
:102B7000416851605A68824205D00022026118689B
:102B800001381860704782685A60F6E710B504464D
:102B9000FFF778FEA26BE36B9A4204D00024FFF7A4
:102BA00093FE204610BD0124F9E710B50446FFF757
:102BB00069FEA36B23B90124FFF786FE204610BDF2
:102BC0000024F9E770B504461546866B026C5AB9C5
:102BD00003681BB100200136A66370BD406801F098
:102BE0007FF800236360F6E76DB9806802F01AFA97
:102BF000226CA3681344A3606268934219D32368CC
:102C0000A3602846E7E7C06802F00CFA226C514244
:102C1000E3689B1AE3602268934202D263680B4424
:102C2000E360022D01D00020D5E726B1013E00204F
:102C3000D1E72846CFE70020CDE70346026C6AB112
:102C400010B50846D9681144D9605C68A14201D327
:102C50001968D960D96802F0E5F910BD704738B538
:102C60000546FFF70FFE95F8454064B201E0013CD0
:102C700064B2002C0ADD6B6A43B105F1240000F058
:102C80002DFF0028F3D000F0C5FFF0E7FF2385F803
:102C90004530FFF719FEFFF7F5FD95F8444064B2A3
:102CA00001E0013C64B2002C0ADD2B6943B105F15F
:102CB000100000F013FF0028F3D000F0ABFFF0E7A6
:102CC000FF2385F84430FFF7FFFD38BD38B5E0B18C
:102CD0000D460446FFF7D6FD2368E26B216C01FB2D
:102CE000023060600020A063A360013A02FB013360
:102CF000E360FF2384F8443084F84530FDB923694C
:102D000063B9FFF7E1FD012038BD4FF0500383F3B5
:102D10001188BFF36F8FBFF34F8FFEE704F11000F0
:102D200000F0DCFE0028ECD04FF0E0234FF08052A2
:102D3000C3F8042DBFF34F8FBFF36F8FE1E704F1AA
:102D40001000FFF7DFFE04F12400FFF7DBFED8E7F9
:102D500038B51D46049C0B4649B92460E0632364E2
:102D600001212046FFF7B2FF84F84C5038BD2260A5
:102D7000F4E740B94FF0500383F31188BFF36F8F2E
:102D8000BFF34F8FFEE7F0B583B00C4615460646FD
:102D900089B101FB00F05030FFF75EFC074638B107
:102DA00000902B4600F1500221463046FFF7D0FF3D
:102DB000384603B0F0BD0846EDE7F0B585B00192A6
:102DC00088B10F461D460446B1B1022D20D1E36BF8
:102DD000012B1DD04FF0500383F31188BFF36F8F89
:102DE000BFF34F8FFEE74FF0500383F31188BFF31B
:102DF0006F8FBFF34F8FFEE7036C002BE5D04FF0D2
:102E0000500383F31188BFF36F8FBFF34F8FFEE73B
:102E100000F006FF064658B9019B002B48D04FF042
:102E2000500383F31188BFF36F8FBFF34F8FFEE71B
:102E300000263DE02A4639462046FFF7C3FE636A76
:102E40007BB948B14FF0E0234FF08052C3F8042D16
:102E5000BFF34F8FBFF36F8FFFF736FD012005B033
:102E6000F0BD04F1240000F039FE0028F4D04FF04A
:102E7000E0234FF08052C3F8042DBFF34F8FBFF310
:102E80006F8FE9E7FFF720FD0020E8E702A800F0D8
:102E90006BFE012619E0002384F8443021E0002372
:102EA00084F8453023E02046FFF7D9FE00F094FC7B
:102EB000FFF7E8FCA26BE36B9A42BBD3022DB9D0BB
:102EC000019B002BDED0002EE0D0FFF7FDFC00F0D0
:102ED000E1FBFFF7D7FC94F8442052B2B2F1FF3F78
:102EE000D9D094F8452052B2B2F1FF3FD7D0FFF7C6
:102EF000EBFC01A902A800F04DFED8B92046FFF76F
:102F000045FE0028CFD0019904F1100000F0B2FD79
:102F10002046FFF7A4FE00F05FFC0028C8D14FF068
:102F2000E0234FF08052C3F8042DBFF34F8FBFF35F
:102F30006F8FBDE72046FFF792FE00F04DFC0020AA
:102F40008DE748B108B5002141600160C1600B46C2
:102F50000A46FFF732FF08BD704710B50246002150
:102F60000120FFF706FF0446FFF7EBFF204610BDE8
:102F70002DE9F84390B10F4616461C460546B1B1FF
:102F8000022C20D1EB6B012B1DD04FF0500383F3AB
:102F90001188BFF36F8FBFF34F8FFEE74FF05003E1
:102FA00083F31188BFF36F8FBFF34F8FFEE7036C7E
:102FB000002BE5D04FF0500383F31188BFF36F8FE0
:102FC000BFF34F8FFEE7FFF76FFDEFF311894FF06F
:102FD000500383F31188BFF36F8FBFF34F8FAA6B3A
:102FE000EB6B9A4206D3022C04D0002089F311889F
:102FF000BDE8F88395F845804FFA88F822463946AF
:103000002846FFF7DFFDB8F1FF3F06D008F10103C6
:103010005BB285F845300120E8E76B6A0BB9012007
:10302000E4E705F1240000F059FD18B126B10120B4
:103030003060DBE70120D9E70120D7E768B170B540
:103040000C460546036C8BB14FF0500383F3118897
:10305000BFF36F8FBFF34F8FFEE74FF0500383F343
:103060001188BFF36F8FBFF34F8FFEE70368EBB19B
:10307000FFF71AFDEFF311864FF0500383F3118829
:10308000BFF36F8FBFF34F8FAA6BEB6B934226D9C1
:1030900095F845305BB20132AA63B3F1FF3F11D01E
:1030A00001335BB285F84530012019E04368002BFD
:1030B000DED04FF0500383F31188BFF36F8FBFF35F
:1030C0004F8FFEE76B6A0BB9012009E005F1240080
:1030D00000F004FD38B144B10120206000E0002080
:1030E00086F3118870BD0120FAE70120F8E72DE989
:1030F000F04184B00192A0B10E4698460446C9B191
:1031000000F08EFD054608BB019B002B00F0878078
:103110004FF0500383F31188BFF36F8FBFF34F8FCE
:10312000FEE74FF0500383F31188BFF36F8FBFF3B7
:103130004F8FFEE7036C002BE2D04FF0500383F378
:103140001188BFF36F8FBFF34F8FFEE7002566E056
:10315000E56831462046FFF770FDB8F1000F20D139
:103160007B1EA36323683BB123694BB9FFF7ACFB1C
:10317000012004B0BDE8F08100F00CFE6060F3E7D0
:1031800004F1100000F0AAFC0028EFD04FF0E0237B
:103190004FF08052C3F8042DBFF34F8FBFF36F8FF2
:1031A000E4E7E560636A002BE0D004F1240000F05E
:1031B00095FC0028DAD04FF0E0234FF08052C3F89E
:1031C000042DBFF34F8FBFF36F8FCFE7FFF77CFB6B
:1031D0000020CEE702A800F0C7FC012529E000236B
:1031E00084F8443031E0002384F8453033E0FFF7C1
:1031F00049FB606800F024FDFFF766FB3BE02046DA
:10320000FFF72DFD00F0E8FA09E02046FFF727FD63
:1032100000F0E2FA2046FFF7C8FC002842D1FFF791
:1032200031FBA76B002F93D1019B002BCED0002D3B
:10323000D0D0FFF749FB00F02DFAFFF723FB94F8FD
:10324000442052B2B2F1FF3FC9D094F8452052B2A7
:10325000B2F1FF3FC7D0FFF737FB01A902A800F08A
:1032600099FC0028D1D12046FFF79FFC0028C6D04A
:103270002368002BBBD0019904F1240000F0FAFB75
:103280002046FFF7ECFC00F0A7FA0028C7D14FF06A
:10329000E0234FF08052C3F8042DBFF34F8FBFF3EC
:1032A0006F8FBCE7002064E70023072B0CD8074A88
:1032B00052F833200AB10133F7E7044A42F83310D9
:1032C00002EBC30358607047704700BFB42E012063
:1032D00070B504460D461646FFF7D4FA94F844300C
:1032E0005BB2B3F1FF3F0DD094F845305BB2B3F160
:1032F000FF3F0BD0FFF7E8FAA36B5BB12046FFF767
:10330000AEFC70BD002384F84430EDE7002384F860
:103310004530EFE73246294604F1240000F0C2FBB5
:10332000ECE70000084B1B681B6823B9074B4FF004
:10333000FF321A607047044B1B68DB68DB685A6811
:10334000024B1A60704700BFF82E0120A82F012001
:1033500010B50446006BFFF701FA2046FFF7FEF9AF
:1033600010BD2DE9F04780460D4617469946089E48
:10337000DDF824A00A9C9200A521206B01F060FEDC
:10338000236B07F18042013A03EB820727F007071E
:103390004FF0000CBCF1090F0BD815F90C2004EB11
:1033A0000C0383F8342015F90C3013B10CF1010C27
:1033B000F0E7002384F83D30042E00D90426E662AD
:1033C000A6640025E564201DFFF7A7FB04F11800A3
:1033D000FFF7A3FB2461C6F10506A66164622565BB
:1033E00084F854504A4641463846FFF71FFA206099
:1033F000BAF1000F01D0CAF80040BDE8F087000024
:1034000038B5002407E004EB840293000E4818440A
:10341000FFF778FB0134042CF5D90C4D2846FFF753
:1034200071FB0B4C2046FFF76DFB0A48FFF76AFB68
:103430000948FFF767FB0948FFF764FB084B1D606D
:10344000084B1C6038BD00BF002F01207C2F0120DD
:10345000902F0120B02F0120DC2F0120C82F012048
:10346000F82E0120FC2E012010B50446FFF70AFAC1
:10347000224A136801331360214B1B685BB1214B57
:103480001B686BB91E4B1B68DA6AE36A9A4207D85D
:103490001B4B1C6004E01A4B1C601368012B29D0E5
:1034A000194A1368013313602364E06A01238340DF
:1034B000164A11680B43136000EB8000211D144B6A
:1034C00003EB8000FFF72CFBFFF7FEF90D4B1B68A9
:1034D0007BB10B4B1B68DA6AE36A9A4209D24FF060
:1034E000E0234FF08052C3F8042DBFF34F8FBFF39A
:1034F0006F8F10BDFFF784FFD2E700BF642F01205C
:10350000F42E0120C42F0120742F0120782F0120D8
:10351000002F012070B504460D461D4B1E681D4B43
:1035200018680430FFF720FB50B91A4B1B68DA6AA1
:10353000012303FA02F218490B6823EA02030B6025
:10354000B4F1FF3F0DD03444124B1B685C60A642BF
:1035500010D9124B18680F4B19680431FFF7EBFABA
:1035600070BD002DEFD00B4B196804310C48FFF7EC
:10357000D7FAF5E70B4B1868064B19680431FFF7CB
:10358000DAFA094B1B68A342EAD9074B1C60E7E74C
:10359000F02F0120F42E0120782F0120FC2E012095
:1035A000C82F0120F82E0120A82F01202DE9F0437B
:1035B00085B00746884614461E469000FFF74CF833
:1035C000F0B181465820FFF747F80546A0B1C0F892
:1035D0003090D5B10023039302950D9B01930C9B72
:1035E00000933346224641463846FFF7BAFE284646
:1035F000FFF73AFF012005E04846FFF7AFF8E8E79C
:103600004FF0FF3005B0BDE8F0834FF0FF30F9E731
:1036100000B583B0194B019300230093822218490F
:103620001848FFF7C3FF012807D0012808D0B0F1E0
:10363000FF3F1AD003B05DF804FB00F03BFCF4E759
:103640004FF0500383F31188BFF36F8FBFF34F8F99
:103650000D4B4FF0FF321A600C4B01221A600C4BDD
:1036600000221A60FFF7A6F9E4E74FF0500383F356
:103670001188BFF36F8FBFF34F8FFEE7A42F012098
:10368000F46A000879390008A82F0120C42F01200E
:10369000F02F0120024A136801331360704700BF06
:1036A000702F0120014B1868704700BFF02F0120D8
:1036B000F8B53E4B1B68002B6AD13D4B1D680135A8
:1036C0001D60C5B93B4B1B681B6843B14FF05003ED
:1036D00083F31188BFF36F8FBFF34F8FFEE7354A37
:1036E0001168354B186810601960344A136801334B
:1036F0001360FFF717FE324B1B68AB423ED9002721
:10370000304B1B68DB6A03EB83039A002E4B9B58FC
:10371000012B00D901272D4B1B68002B3FD1FEF751
:1037200034FF3CE00127234B1B681B6843B3214B4C
:103730001B68DB68DC6863689D4226D3261D304623
:10374000FFF712FAA36A1BB104F11800FFF70CFA95
:10375000E36A01229A401E49086802430A6003EBAB
:1037600083039A00314618481044FFF7D9F9E26AFA
:10377000144B1B68DB6A9A42D4D2D4E70027D2E705
:103780000F4B4FF0FF321A60BAE70D4A1360B7E7EC
:103790000E4A136801331360FEF7F7FE00270D4B46
:1037A0001B6803B101273846F8BD00BF702F012008
:1037B000F02F0120F82E0120FC2E0120AC2F01203B
:1037C000A82F0120F42E0120002F01206C2F0120B2
:1037D000782F0120F42F012038B5354B1B6843B9F1
:1037E0004FF0500383F31188BFF36F8FBFF34F8FF8
:1037F000FEE7FFF747F82E4B1A68013A1A601B687C
:10380000002B4FD12B4B1B680BB900244BE000243D
:10381000294B1B681BB3284BDB68DC6804F11800DC
:10382000FFF7A2F9251D2846FFF79EF9E06A01235C
:103830008340224A11680B43136000EB8000294645
:103840001F4B03EB8000FFF76BF9E26A1D4B1B680F
:10385000DB6A9A42DCD31C4B01221A60D8E70CB118
:10386000FFF760FD194B1C6884B9174B1C68D4B175
:103870004FF0E0234FF08052C3F8042DBFF34F8F79
:10388000BFF36F8F01240EE0013C07D0FFF710FF5C
:103890000028F9D00C4B01221A60F5E70B4B0022EF
:1038A0001A60E2E70024FFF70FF8204638BD00BF9A
:1038B000702F0120642F0120B02F0120782F0120CC
:1038C000002F0120F42E0120F42F01206C2F012065
:1038D00010B5A8B10446104B1B6843B14FF050031C
:1038E00083F31188BFF36F8FBFF34F8FFEE7FFF7AE
:1038F000D1FE00212046FFF70DFEFFF76DFF48B90E
:103900004FF0E0234FF08052C3F8042DBFF34F8FE8
:10391000BFF36F8F10BD00BF702F0120134B1B68CA
:1039200013B310B5FFF7B6FE114B1C68FFF754FF39
:1039300024B90E4B1B68002BF4D110BDFEF7A2FF7B
:103940000B4BDB68DC68201DFFF70EF9094A136892
:10395000013B1360054A1368013B1360FEF7B4FF97
:103960002046FFF7F5FCE4E7704700BF682F012011
:10397000DC2F0120642F012008B50BE04FF0E0237D
:103980004FF08052C3F8042DBFF34F8FBFF36F8FFA
:10399000FEF7F2FDFFF7C2FF024B1B68012BEDD8CB
:1039A000F6E700BF002F012008B52D4B1B681BB1A7
:1039B0002C4B01221A6008BD2A4B00221A602A4BA8
:1039C0001B681B6B1A68B2F1A53F03D15A68B2F1AC
:1039D000A53F1BD0244B186819683431FEF7CBFD86
:1039E000224B1B68B3FA83F3DBB2C3F11F0303EB73
:1039F00083018A001E498A588AB94FF0500383F325
:103A00001188BFF36F8FBFF34F8FFEE79A68B2F153
:103A1000A53FDFD1DB68B3F1A53FDBD1E0E7144977
:103A200003EB830082000A4450684068506003EB57
:103A3000830C4FEA8C0208321144884209D003EB10
:103A400083039A000A4B13445B68DA68064B1A60DA
:103A5000B1E7406862469100054A0A445060EEE7CB
:103A6000702F0120F42F0120F42E0120782F012047
:103A7000002F012058B110B50C46094A11681831C1
:103A8000FFF759F801212046FFF744FD10BD4FF024
:103A9000500383F31188BFF36F8FBFF34F8FFEE79F
:103AA000F42E012038B570B10D4614460A4A11684B
:103AB0001831FFF735F80CB14FF0FF352146284695
:103AC000FFF728FD38BD4FF0500383F31188BFF393
:103AD0006F8FBFF34F8FFEE7F42E012038B5C36818
:103AE000DC6824B304F118052846FFF73DF8184BAD
:103AF0001B682BBB251D2846FFF736F8E06A01231B
:103B00008340144A11680B43136000EB8000294680
:103B1000114B03EB8000FFF703F8E26A0F4B1B68C1
:103B2000DB6A9A4211D901200D4B186038BD4FF065
:103B3000500383F31188BFF36F8FBFF34F8FFEE7FE
:103B400029460848FEF7ECFFE7E70020EEE700BF54
:103B5000702F0120782F0120002F0120F42E01204A
:103B6000F42F0120B02F012030B1084A1268026002
:103B7000074A1268426070474FF0500383F3118880
:103B8000BFF36F8FBFF34F8FFEE700BFAC2F012055
:103B9000F02F012038B5C0B10C460546F1B1FEF753
:103BA00071FE1A4B1A682368B3F1FF3F27D02868CB
:103BB00017490968884202D06968914224D9696826
:103BC000501A834213D801241AE04FF0500383F3B4
:103BD0001188BFF36F8FBFF34F8FFEE74FF0500395
:103BE00083F31188BFF36F8FBFF34F8FFEE78A1AFD
:103BF000134423602846FFF7B7FF002400E00024A9
:103C0000FEF762FE204638BD0124F9E7F02F0120BF
:103C1000AC2F0120014B01221A607047F42F0120C4
:103C2000054B1B6833B1054B1B680BB10020704777
:103C30000220704701207047C42F0120702F0120FF
:103C4000002845D038B50446C36A224A1268D26AB1
:103C5000934214D28269002A05DB1E4A1268D26A96
:103C6000C2F105028261616903EB83031A4A02EB28
:103C70008303994204D0174B1B68DB6AE36238BDAB
:103C8000251D2846FEF770FF90B1124B1B68D86ABD
:103C9000E06201238340114A11680B43136000EB7B
:103CA000800029460C4B03EB8000FEF739FFE6E766
:103CB000E36A03EB8301084A52F82120002AE4D189
:103CC00001229A4005490B6823EA02030B60DCE7F6
:103CD000704700BFF42E0120002F0120782F012013
:103CE00000284CD038B50446274B1B68834208D0C7
:103CF0004FF0500383F31188BFF36F8FBFF34F8FE3
:103D0000FEE7C36C43B94FF0500383F31188BFF350
:103D10006F8FBFF34F8FFEE7013BC364C16A826CB4
:103D200091422ED00BB1002038BD051D2846FEF76C
:103D30001BFF70B9E26A02EB8201144B53F8213089
:103D40003BB9012303FA02F211490B6823EA02038B
:103D50000B60A06CE062C0F10503A361012404FACA
:103D600000F30B4A11680B43136000EB80002946F7
:103D7000064B03EB8000FEF7D3FE2046D4E700207D
:103D800070470020D0E700BFF42E0120002F012053
:103D9000782F0120054B1B6823B1044B1A68D36CA4
:103DA0000133D364014B1868704700BFF42E012023
:103DB000064B1A681368B3FA83F35B09036013B9FF
:103DC000D368186870470020704700BFF82F0120A3
:103DD00008B54160006191420CD8D21A83699A42B9
:103DE00001D3012008BD011D094B1868FEF7A3FE91
:103DF0000020F7E79A4201D2994206D2011D054BF5
:103E00001868FEF798FE0020ECE70120EAE700BF03
:103E1000FC2F0120F82F012038B5FEF733FD0F4BA2
:103E20001B6813B1FEF750FD38BD0D4D2846FEF757
:103E300069FE0C4C2046FEF765FE0B4B1D600B4BDC
:103E40001C6000220C210A20FEF793FF034B186030
:103E50000028E7D00649FFF727FAE3E72C300120D6
:103E60000030012014300120F82F0120FC2F012008
:103E7000FC6A00082DE9F041079F41B94FF050035B
:103E800083F31188BFF36F8FBFF34F8FFEE70646B2
:103E900015461C4688465FB1FFF7BEFF3E60C7F877
:103EA0001880FD613C62069B7B62381DFEF735FE83
:103EB000BDE8F08100B583B0FFF7AEFF0D4B1B6886
:103EC0005BB10D4B01930223009300234FF48272E8
:103ED0000A490B48FFF76AFB40B94FF0500383F3E0
:103EE0001188BFF36F8FBFF34F8FFEE703B05DF80C
:103EF00004FB00BF2C30012030300120046B00088F
:103F0000FD4100082DE9F04182B00446884615467F
:103F10001E462C20FEF7A0FB074640B10190089BEF
:103F2000009333462A4641462046FFF7A3FF384612
:103F300002B0BDE8F0810000B8B19C4603461848C5
:103F4000006858B300B585B001910292039305292A
:103F50001CDCFFF765FE022810D000231A4601A9D9
:103F60000F480068FEF729FF15E04FF0500383F378
:103F70001188BFF36F8FBFF34F8FFEE70023069AC0
:103F800001A907480068FEF718FF04E00023624615
:103F900001A9FEF7EDFF05B05DF804FB00207047B6
:103FA0002C30012070B582B01A4B1B681A6852B3CE
:103FB000DB681E68DC68251D2846FEF7D5FD636AB0
:103FC00020469847E369012BEED1A36933449E4212
:103FD00007D26360246129460E4B1868FEF7ABFDDB
:103FE000E2E7002100910B4632462046FFF7A4FF8E
:103FF0000028D9D14FF0500383F31188BFF36F8F9E
:10400000BFF34F8FFEE7044A10680249086013604F
:1040100002B070BDF82F0120FC2F012038B50546F5
:10402000FFF740FB0446074B1B68834205D800237B
:104030002B60044B1C60204638BDFFF7B3FF012303
:104040002B60F6E72830012070B582B006460D4699
:1040500014490968C968CC68201DFEF785FDE1692F
:10406000012904D0636A2046984702B070BDA16957
:1040700033462A4631442046FFF7AAFE0028F1D0F5
:10408000002100910B4632462046FFF755FF0028DD
:10409000E8D14FF0500383F31188BFF36F8FBFF364
:1040A0004F8FFEE7F82F012070B582B006460C4610
:1040B000FFF7F0FA01A8FFF7B1FF019B2BBB054604
:1040C0000CB9B0421AD22CB1124B1B681C68B4FA5E
:1040D00084F464092246711B0F4B1868FFF7F8F847
:1040E000FFF77AFB98B94FF0E0234FF08052C3F806
:1040F000042DBFF34F8FBFF36F8F08E0FFF76CFB0A
:1041000029463046FFF7A0FF01E0FFF765FB02B04C
:1041100070BD00BFFC2F01202C30012010B586B0EF
:1041200000231A4603A934480068FEF7E0FF002880
:1041300060D0039B002BF3DB059C636913B1201D4A
:10414000FEF712FD02A8FFF769FF039B092BE7D8D2
:1041500001A252F823F000BF81410008814100080C
:104160008141000821410008C7410008ED410008D5
:10417000814100088141000821410008C741000831
:10418000049BA169024619442046FFF721FE00283E
:10419000C6D0636A20469847E369012BC0D1A26963
:1041A000002100910B46049802442046FFF7C4FE0C
:1041B0000028B5D14FF0500383F31188BFF36F8F00
:1041C000BFF34F8FFEE70499A16131B10346024668
:1041D00001442046FFF7FCFDA2E74FF0500383F3B4
:1041E0001188BFF36F8FBFF34F8FFEE72046FEF7B6
:1041F000B5FA95E706B010BD2C30012000B583B0AC
:1042000001A8FFF7D5FD0199FFF74EFFFFF786FFE5
:10421000F6E740B110B50446FEF734FB246AFEF71A
:1042200053FB204610BD4FF0500383F31188BFF3BA
:104230006F8FBFF34F8FFEE781F0004102E000BFB8
:1042400083F0004330B54FEA41044FEA430594EA56
:10425000050F08BF90EA020F1FBF54EA000C55EA91
:10426000020C7FEA645C7FEA655C00F0E2804FEA62
:104270005454D4EB5555B8BF6D420CDD2C4480EA44
:10428000020281EA030382EA000083EA010180EA74
:10429000020281EA0303362D88BF30BD11F0004FC2
:1042A0004FEA01314FF4801C4CEA113102D04042F8
:1042B00061EB410113F0004F4FEA03334CEA133333
:1042C00002D0524263EB430394EA050F00F0A7804B
:1042D000A4F10104D5F1200E0DDB02FA0EFC22FA46
:1042E00005F2801841F1000103FA0EF2801843FA3A
:1042F00005F359410EE0A5F120050EF1200E012A2B
:1043000003FA0EFC28BF4CF0020C43FA05F3C01868
:1043100051EBE37101F0004507D54FF0000EDCF1E1
:10432000000C7EEB00006EEB0101B1F5801F1BD38A
:10433000B1F5001F0CD349085FEA30004FEA3C0C8E
:1043400004F101044FEA445212F5800F80F09A8084
:10435000BCF1004F08BF5FEA500C50F1000041EB88
:10436000045141EA050130BD5FEA4C0C404141EB8C
:104370000101013C28BFB1F5801FE9D291F0000F87
:1043800004BF01460020B1FA81F308BF2033A3F136
:104390000B03B3F120020CDA0C3208DD02F1140C2D
:1043A000C2F10C0201FA0CF021FA02F10CE002F168
:1043B0001402D8BFC2F1200C01FA02F120FA0CFC61
:1043C000DCBF41EA0C019040E41AA2BF01EB0451AA
:1043D000294330BD6FEA04041F3C1CDA0C340EDCA8
:1043E00004F11404C4F1200220FA04F001FA02F3EB
:1043F00040EA030021FA04F345EA030130BDC4F1A9
:104400000C04C4F1200220FA02F001FA04F340EA9D
:104410000300294630BD21FA04F0294630BD94F04E
:10442000000F83F4801306BF81F480110134013D35
:104430004EE77FEA645C18BF7FEA655C29D094EAA6
:10444000050F08BF90EA020F05D054EA000C04BF24
:104450001946104630BD91EA030F1EBF002100200F
:1044600030BD5FEA545C05D14000494128BF41F0AE
:10447000004130BD14F580043CBF01F5801130BD12
:1044800001F0004545F0FE4141F470014FF000009D
:1044900030BD7FEA645C1ABF194610467FEA655C4E
:1044A0001CBF0B46024650EA013406BF52EA0335F0
:1044B00091EA030F41F4002130BD00BF90F0000FDE
:1044C00004BF0021704730B54FF4806404F132041A
:1044D0004FF000054FF0000150E700BF90F0000FD3
:1044E00004BF0021704730B54FF4806404F13204FA
:1044F00010F0004548BF40424FF000013EE700BFCA
:1045000042004FEAE2014FEA31014FEA02701FBF59
:1045100012F07F4393F07F4F81F06051704732F08B
:104520007F4208BF704793F07F4F04BF41F40021E2
:10453000704730B54FF4607401F0004521F0004140
:104540001CE700BF50EA010208BF704730B54FF0CA
:1045500000050AE050EA010208BF704730B511F0CB
:10456000004502D5404261EB41014FF4806404F103
:1045700032045FEA915C3FF4D8AE4FF003025FEA89
:10458000DC0C18BF03325FEADC0C18BF033202EB0D
:10459000DC02C2F1200300FA03FC20FA02F001FA67
:1045A00003FE40EA0E0021FA02F11444BDE600BF0A
:1045B00070B54FF0FF0C4CF4E06C1CEA11541DBFB9
:1045C0001CEA135594EA0C0F95EA0C0F00F0DEF884
:1045D0002C4481EA030621EA4C5123EA4C5350EA69
:1045E000013518BF52EA033541F4801143F48013BA
:1045F00038D0A0FB02CE4FF00005E1FB02E506F04B
:104600000042E0FB03E54FF00006E1FB03569CF09F
:10461000000F18BF4EF0010EA4F1FF04B6F5007FA5
:1046200064F5407404D25FEA4E0E6D4146EB060617
:1046300042EAC62141EA55514FEAC52040EA5E50A0
:104640004FEACE2EB4F1FD0C88BFBCF5E06F1ED84A
:10465000BEF1004F08BF5FEA500E50F1000041EB81
:10466000045170BD06F0004646EA010140EA02002E
:1046700081EA0301B4EB5C04C2BFD4EB0C0541EA50
:10468000045170BD41F480114FF0000E013C00F365
:10469000AB8014F1360FDEBF002001F0004170BD89
:1046A000C4F10004203C35DA0C341BDC04F11404A2
:1046B000C4F1200500FA05F320FA04F001FA05F22E
:1046C00040EA020001F0004221F0004110EBD370FB
:1046D00021FA04F642EB06015EEA430E08BF20EA27
:1046E000D37070BDC4F10C04C4F1200500FA04F3CA
:1046F00020FA05F001FA04F240EA020001F000415C
:1047000010EBD37041F100015EEA430E08BF20EACE
:10471000D37070BDC4F1200500FA05F24EEA020E16
:1047200020FA04F301FA05F243EA020321FA04F045
:1047300001F0004121FA04F220EA020000EBD370FC
:104740005EEA430E08BF20EAD37070BD94F0000FFC
:104750000FD101F00046400041EB010111F4801F30
:1047600008BF013CF7D041EA060195F0000F18BFE1
:10477000704703F00046520043EB030313F4801F1D
:1047800008BF013DF7D043EA0603704794EA0C0FD7
:104790000CEA135518BF95EA0C0F0CD050EA4106ED
:1047A00018BF52EA4306D1D181EA030101F000416A
:1047B0004FF0000070BD50EA410606BF1046194692
:1047C00052EA430619D094EA0C0F02D150EA01369E
:1047D00013D195EA0C0F05D152EA03361CBF1046DF
:1047E00019460AD181EA030101F0004141F0FE417E
:1047F00041F470014FF0000070BD41F0FE4141F402
:10480000780170BD70B54FF0FF0C4CF4E06C1CEA01
:1048100011541DBF1CEA135594EA0C0F95EA0C0FB6
:1048200000F0A7F8A4EB050481EA030E52EA033571
:104830004FEA013100F088804FEA03334FF0805592
:1048400045EA131343EA12634FEA022245EA1115BF
:1048500045EA10654FEA00260EF000419D4208BF70
:10486000964244F1FD0404F5407402D25B084FEA1D
:104870003202B61A65EB03055B084FEA32024FF4C9
:1048800080104FF4002CB6EB020E75EB030E22BF26
:10489000B61A754640EA0C005B084FEA3202B6EBE6
:1048A000020E75EB030E22BFB61A754640EA5C0095
:1048B0005B084FEA3202B6EB020E75EB030E22BF25
:1048C000B61A754640EA9C005B084FEA3202B6EB26
:1048D000020E75EB030E22BFB61A754640EADC00E5
:1048E00055EA060E18D04FEA051545EA16754FEA47
:1048F00006164FEAC30343EA52734FEAC2025FEA65
:104900001C1CC0D111F4801F0BD141EA00014FF0F3
:1049100000004FF0004CB6E711F4801F04BF0143C4
:104920000020B4F1FD0C88BFBCF5E06F3FF6AFAEE0
:10493000B5EB030C04BFB6EB020C5FEA500C50F170
:10494000000041EB045170BD0EF0004E4EEA1131F3
:1049500014EB5C04C2BFD4EB0C0541EA045170BDFA
:1049600041F480114FF0000E013C90E645EA060E3E
:104970008DE60CEA135594EA0C0F08BF95EA0C0F6C
:104980003FF43BAF94EA0C0F0AD150EA01347FF4B4
:1049900034AF95EA0C0F7FF425AF104619462CE78B
:1049A00095EA0C0F06D152EA03353FF4FDAE1046EE
:1049B000194622E750EA410618BF52EA43067FF43F
:1049C000C5AE50EA41047FF40DAF52EA43057FF4CF
:1049D000EBAE12E74FF0FF3C06E000BF4FF0010CDA
:1049E00002E000BF4FF0010C4DF804CD4FEA410C3E
:1049F0007FEA6C5C4FEA430C18BF7FEA6C5C1BD00B
:104A000001B050EA410C0CBF52EA430C91EA030F8B
:104A100002BF90EA020F0020704710F1000F91EAE8
:104A2000030F58BF994208BF90422CBFD8176FEAB6
:104A3000E37040F0010070474FEA410C7FEA6C5C84
:104A400002D150EA013C07D14FEA430C7FEA6C5C8B
:104A5000D6D152EA033CD3D05DF8040B704700BFB7
:104A60008446104662468C461946634600E000BF05
:104A700001B5FFF7B7FF002848BF10F1000F01BDD7
:104A80004DF808EDFFF7F4FF0CBF012000205DF8A2
:104A900008FB00BF4DF808EDFFF7EAFF34BF012027
:104AA00000205DF808FB00BF4DF808EDFFF7E0FFC0
:104AB00094BF012000205DF808FB00BF4DF808ED11
:104AC000FFF7CEFF94BF012000205DF808FB00BF78
:104AD0004DF808EDFFF7C4FF34BF012000205DF85A
:104AE00008FB00BF4A0011D212F5001211D20DD5F9
:104AF0006FF47873B3EB62520ED44FEAC12343F0E4
:104B0000004343EA505323FA02F070474FF000008D
:104B1000704750EA013002D14FF0FF3070474FF03C
:104B20000000704753B94AB9002908BF00281CBFCC
:104B30004FF0FF314FF0FF3000F074B9ADF1080CC9
:104B40006DE904CE00F006F8DDF804E0DDE90223AB
:104B500004B070472DE9F047089D04468E46002BAF
:104B60004DD18A42944669D9B2FA82F252B101FA21
:104B700002F3C2F1200120FA01F10CFA02FC41EA31
:104B8000030E94404FEA1C48210CBEFBF8F61FFAB6
:104B90008CF708FB16E341EA034306FB07F1994251
:104BA0000AD91CEB030306F1FF3080F01F81994204
:104BB00040F21C81023E63445B1AA4B2B3FBF8F0DE
:104BC00008FB103344EA034400FB07F7A7420AD965
:104BD0001CEB040400F1FF3380F00A81A74240F28D
:104BE00007816444023840EA0640E41B00261DB1F8
:104BF000D4400023C5E900433146BDE8F0878B422D
:104C000009D9002D00F0EF800026C5E900013046EB
:104C10003146BDE8F087B3FA83F6002E4AD18B42C5
:104C200002D3824200F2F980841A61EB030301206F
:104C30009E46002DE0D0C5E9004EDDE702B9FFDE5B
:104C4000B2FA82F2002A40F09280A1EB0C014FEA06
:104C50001C471FFA8CFE0126200CB1FBF7F307FB63
:104C6000131140EA01410EFB03F0884208D91CEB06
:104C7000010103F1FF3802D2884200F2CB804346A3
:104C8000091AA4B2B1FBF7F007FB101144EA014482
:104C90000EFB00FEA64508D91CEB040400F1FF3111
:104CA00002D2A64500F2BB800846A4EB0E0440EAFF
:104CB00003409CE7C6F12007B34022FA07FC4CEA08
:104CC000030C20FA07F401FA06F31C43F9404FEAFB
:104CD0001C4900FA06F3B1FBF9F8200C1FFA8CFE10
:104CE00009FB181140EA014108FB0EF0884202FA64
:104CF00006F20BD91CEB010108F1FF3A80F0888025
:104D0000884240F28580A8F102086144091AA4B2E1
:104D1000B1FBF9F009FB101144EA014100FB0EFE62
:104D20008E4508D91CEB010100F1FF346CD28E4591
:104D30006AD90238614440EA0840A0FB0294A1EB22
:104D40000E01A142C846A64656D353D05DB1B3EB7F
:104D5000080261EB0E0101FA07F722FA06F3F140AF
:104D60001F43C5E9007100263146BDE8F087C2F156
:104D70002003D8400CFA02FC21FA03F391400143CE
:104D80004FEA1C471FFA8CFEB3FBF7F007FB103607
:104D90000B0C43EA064300FB0EF69E4204FA02F4B3
:104DA00008D91CEB030300F1FF382FD29E422DD906
:104DB000023863449B1B89B2B3FBF7F607FB16333B
:104DC00041EA034106FB0EF38B4208D91CEB0101BB
:104DD00006F1FF3816D28B4214D9023E6144C91A3B
:104DE00046EA004638E72E46284605E70646E3E64B
:104DF0001846F8E64B45A9D2B9EB020864EB0C0E55
:104E00000138A3E74646EAE7204694E74046D1E763
:104E1000D0467BE7023B614432E7304609E7644411
:104E2000023842E7704700BF014B1868704700BF67
:104E300014000020002310B50446C0E90033C0E987
:104E40000433836081814366C281836119460822ED
:104E50005C3000F0F5F8054B6362054BA362054B2F
:104E6000E362054B2462236310BD00BF19530008A1
:104E70003B5300087353000897530008014900F0A2
:104E8000AFB800BF3D57000870B568224D1E5543AE
:104E90000E4605F1740100F0DBF8044640B1002134
:104EA000C0E900160C30A06005F1680200F0C8F8F7
:104EB000204670BD014800F0B3B800BF3530012076
:104EC000014800F0AEB800BF35300120014800F0C5
:104ED000A7B800BF36300120014800F0A2B800BFDB
:104EE0003630012010B50446FFF7F0FFA3691BB16F
:104EF000BDE81040FFF7F0BFC4E912332365134B40
:104F0000134A1B68A262A34204BF0123A361204687
:104F100000F020F86060204600F01CF8A0602046F9
:104F200000F018F80022E06004216068FFF782FFBB
:104F3000A06801220921FFF77DFFE068022212210B
:104F4000FFF778FF0123A361D2E700BF706C000870
:104F50007D4E0008F8B50746FFF7ACFF1E4B1E68F4
:104F6000B36913B93046FFF7BDFF4836D6E90134BF
:104F7000013B03D533680BB33668F7E7B4F90C503F
:104F8000D5B9164BE36004F15800656600F047F8A8
:104F9000FFF796FFC4E90155C4E904552560A561F2
:104FA0000822294604F15C0000F04AF8C4E90D55D6
:104FB000C4E912552046F8BD6834D9E704213846C3
:104FC000FFF762FF044630600028D5D1FFF778FF75
:104FD0000C233B60EEE700BF706C00080100FFFF90
:104FE0002DE9F8430646884600F148040027D4E935
:104FF0000195B9F1010905D52468002CF7D138468F
:10500000BDE8F883AB89012B07D9B5F90E30013320
:1050100003D029463046C04707436835E9E7704763
:10502000704770470A44914200F1FF3300D1704746
:1050300010B511F8014B03F8014F9142F9D110BDA1
:1050400002440346934200D1704703F8011BF9E77D
:10505000F8B5CD1C25F0030508350C2D38BF0C25FF
:10506000002D064601DBA94203D90C233360002042
:10507000F8BD00F031FC21490A6814469CB9204F64
:105080003B6823B92146304600F036F9386029469E
:10509000304600F031F9431C23D10C2333603046F5
:1050A00000F020FCE3E723685B1B17D40B2B03D92C
:1050B00023601C44256004E06368A2420CBF0B60BF
:1050C0005360304600F00EFC04F10B00231D20F06D
:1050D0000700C21ACCD01B1AA350C9E72246646845
:1050E000CCE7C41C24F00304A042E3D0211A3046CC
:1050F00000F002F90130DDD1CFE700BF38300120E8
:105100003C3001200FB40A4B13B51C6824B1A369CD
:1051100013B92046FFF7E6FE05AB049AA168019398
:10512000204600F04BFF02B0BDE8104004B07047CD
:105130001400002070B50E46054618B183690BB9FE
:10514000FFF7D0FEAB69AC6813B92846FFF7CAFE7B
:105150002C4B9C4220D16C68636EDB0705D4A3897D
:10516000980502D4A06DFFF75BFFA38919071DD531
:105170002369DBB1013EA36816F8011F013BA36060
:1051800039BB002B38DA22460A21284600F06EF996
:10519000013011D00A2511E01B4B9C4201D1AC68B3
:1051A000DAE71A4B9C4208BFEC68D5E7214628464F
:1051B00000F0C0F90028DDD04FF0FF35636EDA074C
:1051C00005D4A3899B0502D4A06DFFF72AFF2846CA
:1051D00070BD002B04DAA2699A4206DC0A2904D0C9
:1051E00023685A1C22601970C5E72246284600F041
:1051F0003DF90130BFD1DFE723680A255A1C226040
:105200001D70DBE7306C0008506C0008106C000863
:10521000024B01461868FFF78DBF00BF1400002045
:1052200038B5104B1D68AB6B0446B3B9182000F0BD
:105230004BFB0246A86320B90B4B0C484221FBF7FD
:10524000B9FD0B490B4BC0E900130B4B83600B23DB
:10525000838100210120C2E90401AB6B00221C61A3
:105260005A6138BD14000020746C00088B6C000873
:105270000E33CDAB34126DE6ECDE0500164B10B5E7
:105280001C68A36BB3B9182000F01EFBA06328B9FB
:105290000246124B12484E21FBF78CFD114A124B6D
:1052A000C0E90023114B83600B238381012200237B
:1052B000C0E90423A46B0E4A206963690D49424387
:1052C00001FB0322A0FB0101431C42EB0100C4E9E6
:1052D000043020F0004010BD14000020746C000861
:1052E0008B6C00080E33CDAB34126DE6ECDE05009E
:1052F0002DF451582D7F954C38B5064D00230446AA
:1053000008462B60FBF77CFD431C02D12B6803B1E0
:10531000236038BD0001002010B50C46B1F90E1015
:1053200000F07CFF0028ABBF636DA3891B1823F43A
:105330008053ACBF6365A38110BD2DE9F0411F46CA
:105340008B89DB0505460C46164605D5B1F90E10CE
:105350000223002200F040FAA389B4F90E1023F4CE
:105360008053A38132463B462846BDE8F04100F019
:10537000CFB810B50C46B1F90E1000F02DFA431C51
:10538000A38915BF606523F4805343F48053A38140
:1053900018BFA38110BDB1F90E1000F039B910F893
:1053A000012B11F8013B012A28BF9A42F7D0D01AED
:1053B0007047034613F8012B002AFBD1181A013855
:1053C000704700001FB50B4B002269460446186861
:1053D00000F0F0F90028BEBF4FF0FF324FF0FF336E
:1053E000CDE90023DDE900010CB1C4E9000104B0FE
:1053F00010BD00BF1400002030B51446002C9BB037
:1054000005461A4605DA8B2303604FF0FF301BB0C8
:1054100030BD4FF40273ADF80C3014BF04F1FF330C
:105420002346029305934FF6FF7300910491ADF864
:105430000E3069461E9B00F003FB431CBCBF8B2350
:105440002B60002CE3D0009B00221A70DFE70000E5
:1054500007B5009313460A46014603480068FFF764
:10546000CBFF03B05DF804FB14000020F8B50E4636
:105470001446054618B183690BB9FFF733FD214B7C
:105480009C422BD16C68A369A360A3891A072FD50E
:1054900023696BB323692068C01A6369F6B283423B
:1054A000374604DC2146284600F048F930BBA368A3
:1054B000013BA36023685A1C22601E70636901309F
:1054C000834204D0A389DB0706D50A2E04D12146E6
:1054D000284600F033F988B93846F8BD0A4B9C429B
:1054E00001D1AC68CFE7094B9C4208BFEC68CAE722
:1054F0002146284600F01EF80028CBD04FF0FF3799
:10550000EAE700BF306C0008506C0008106C00081F
:1055100038B5074D04460846114600222A601A464F
:10552000FBF718FE431C02D12B6803B1236038BD82
:1055300000010020324B70B51D6806460C4625B1AF
:10554000AB6913B92846FFF7CDFC2E4B9C420FD117
:105550006C68A389B4F90C2019072CD4DD0611D48A
:105560000923336042F04003A3814FF0FF303EE057
:10557000254B9C4201D1AC68EBE7244B9C4208BF11
:10558000EC68E6E7580712D5616B41B104F14403BA
:10559000994202D0304600F0ABF900236363A3893F
:1055A00023F02403A3810023636023692360A3897C
:1055B00043F00803A38123694BB9A38903F4207343
:1055C000B3F5007F03D02146304600F03DF9A089B5
:1055D000B4F90C2010F001030AD00023A360636922
:1055E0005B42A361236943B910F08000BAD170BD5A
:1055F000810758BF6369A360F4E70020F7E700BFA5
:1056000014000020306C0008506C0008106C00087A
:1056100038B5064D0023044608462B60FBF7CCFD49
:10562000431C02D12B6803B1236038BD0001002068
:105630008A892DE9F041054610070C4658D44B687D
:10564000002B05DC0B6C002B02DC0020BDE8F08198
:10565000E66A002EF9D0002312F480522F682B60E6
:1056600032D0606DA3895A0705D56368C01A636B91
:105670000BB1236CC01A00230246E66A216A284651
:10568000B047431CA38906D129681D292CD82A4A72
:10569000CA40D60728D500226260D9042269226058
:1056A00004D5421C01D12B6803B96065616B2F6082
:1056B0000029CAD004F14403994202D0284600F0E0
:1056C00017F900206063C1E7216A01232846B0472B
:1056D000411CC7D12B68002BC4D01D2B01D0162B29
:1056E00001D12F60B1E7A38943F04003A381ADE767
:1056F0000F69002FA9D093070E6808BF4B690F6090
:1057000018BF0023A6EB07088B60B8F1000F9CDDE3
:10571000216AA66A43463A462846B047002806DC76
:10572000A38943F04003A3814FF0FF308EE7074485
:10573000A8EB0008E9E700BF0100402038B50B697D
:1057400005460C4613B90025284638BD18B18369B3
:105750000BB9FFF7C7FB144B9C421BD16C68B4F923
:105760000C30002BEFD0626ED00704D4990502D420
:10577000A06DFFF755FC28462146FFF759FF636EE1
:10578000DA070546E0D4A3899B05DDD4A06DFFF7B9
:1057900048FCD9E7054B9C4201D1AC68DFE7044BDC
:1057A0009C4208BFEC68DAE7306C0008506C0008D7
:1057B000106C000838B5074D002304460846114612
:1057C0002B60FBF74CFD431C02D12B6803B1236017
:1057D00038BD00BF0001002038B5074D044608461B
:1057E000114600222A601A46FBF7A0FC431C02D196
:1057F0002B6803B1236038BD0001002070B50E4650
:10580000B1F90E10002996B014461D4608DAB6F913
:105810000C3000222A601A0610D44FF480630EE088
:105820006A4600F00DFD0028F1DB019A02F4704297
:10583000A2F500535A425A412A60EEE74023002065
:10584000236016B070BD00008B8973B59D070646B6
:105850000C4607D504F147032360236101236361EC
:1058600002B070BD01AB6A46FFF7C8FF009905465C
:105870003046FFF7EDFB48B9B4F90C309A05EFD488
:1058800023F0030343F00203A381E3E70D4BB3626C
:10589000A389206043F08003A381009B6361019B87
:1058A00020615BB1B4F90E10304600F0DBFC28B18A
:1058B000A38923F0030343F00103A381A0890543D7
:1058C000A581CDE77D4E0008024B01461868FFF721
:1058D000BFBB00BF140000200148FFF7A1BB00BF01
:1058E000343001200148FFF79CBB00BF3430012059
:1058F00037B5002944D051F8043C0190002BA1F1A8
:105900000404B8BFE418FFF7E7FF1E4A01981368C4
:1059100033B96360146003B0BDE83040FFF7E2BF05
:10592000A34208D9256861198B4201BF19685B68D9
:1059300049192160EDE71A465B680BB1A342FAD919
:1059400011685518A5420BD1246821445418A3426C
:105950001160E0D11C685B68536021441160DAE794
:1059600002D90C230360D6E7256861198B4204BF76
:1059700019685B68636004BF491921605460CAE715
:1059800003B030BD383001202DE9F0478E689E42CB
:1059900082460C4690461F4638D88A8912F4906F8A
:1059A00032D025680969A5EB0109656905EB450554
:1059B00005EBD57501334B446D109D4238BF1D4634
:1059C000530531D52946FFF743FB064650B90C2352
:1059D000CAF80030A38943F04003A3814FF0FF30A1
:1059E000BDE8F08721694A46FFF71CFBA38923F431
:1059F000906343F08003A381266165614E44A5EB6B
:105A000009052660A5603E46BE4200D93E46206894
:105A10003246414600F08CFCA3689B1BA3602368C0
:105A2000334423600020DBE72A4600F09BFC064657
:105A30000028E1D121695046FFF75AFFC7E700006F
:105A40002DE9F04F98468B891B069DB007460D4601
:105A500014460ED50B6963B94021FFF7F9FA2860A7
:105A6000286120B90C233B604FF0FF30D1E0402388
:105A70006B610023099320238DF82930CDF80C8029
:105A80003023DFF8A8818DF82A304FF00109234632
:105A90009A4613F8012B0AB1252AF9D1BAEB040B67
:105AA0000BD05B46224629463846FFF76DFF013092
:105AB00000F0AA80099A5A4409929AF80030002B03
:105AC00000F0A28000234FF0FF32CDE905230AF158
