:020000040800F2
:1000000000000220B9020008BF020008C302000875
:1000100035030008390300088103000800000000D0
:10002000000000000000000000000000E11D0008CA
:10003000CD03000800000000811E0008E51E000836
:10004000E5030008E5030008E5030008E5030008F0
:10005000E5030008E5030008E5030008E5030008E0
:10006000E5030008E5030008E5030008E5030008D0
:10007000E5030008E5030008E5030008E5030008C0
:10008000E5030008E5030008E5030008E5030008B0
:10009000E5030008E5030008E5030008E5030008A0
:1000A000E5030008E5030008E5030008E503000890
:1000B000E5030008E5030008E5030008E503000880
:1000C000E5030008E5030008E5030008E503000870
:1000D000E5030008E5030008E5030008E503000860
:1000E000E5030008E5030008E5030008E503000850
:1000F000E5030008E5030008E5030008E503000840
:10010000E5030008E5030008E5030008E50300082F
:10011000E5030008E5030008E5030008E50300081F
:10012000E5030008E5030008E5030008E50300080F
:10013000E5030008E5030008E5030008E5030008FF
:10014000E5030008E5030008E5030008E5030008EF
:10015000E5030008E5030008E5030008E5030008DF
:10016000E5030008E5030008E5030008E5030008CF
:10017000E5030008E5030008E503000800000000AF
:10018000E5030008E503000800B583B001F08AF834
:10019000384B394A1360394A1360394906E052F83E
:1001A000041B43F8041B9842F9D86146354B994229
:1001B00005D20A684B6801F10C0C8868F3E72E4BF6
:1001C0001A68314B9A4200D0FEE72C4B1A682F4B2D
:1001D0009A42F9D1274B2E4A13602E4A13602E4AB9
:1001E00000E002462D4B9A4209D2104650F8083BD7
:1001F00051689942F5D9002243F8042BF9E7244BC2
:100200001B6813B9234B1B6803B1FEE701F0FEF82E
:10021000694601A800F07AFE214C224BE41AA41092
:10022000002504E01F4B53F8253098470135AC42B8
:10023000F8DC1D4C1D4BE41AA410002504E01B4BF8
:1002400053F8253098470135AC42F8DC0099019805
:1002500001F0EEFA0546164C164BE41AA41004E021
:10026000013C144B53F824309847002CF8DC284606
:1002700000F0E8FDBABADECA0000002078000020D5
:10028000E8030008000400087856341232547698C7
:100290007C00002030300120000400081004000819
:1002A00010040008100400081004000810040008DE
:1002B000100400081004000808B5FFF765FF00BE31
:1002C000FEE71EF0040F0CBFEFF30880EFF3098088
:1002D0007146414A10472DE9F04182B004460D466F
:1002E000124B5F6BD3F838809E6A1B6B13F0020FC2
:1002F00003D00E4BDB6A002B0BDB0D4800F0AEFE8B
:10030000009543463A463146204600F0D1FE00BEF5
:10031000FEE74BF6AB6100F045FF0028EDD0034B44
:100320004FF00042DA6202B0BDE8F08100ED00E07B
:10033000F84F000800BEFEE71EF0040F0CBFEFF3FD
:100340000880EFF309807146244A10472DE9F041F7
:1003500082B004460D46084B5F6BD3F838809E6A26
:10036000064800F07BFE009543463A46314620465B
:1003700000F09EFE00BEFEE700ED00E00850000821
:100380001EF0040F0CBFEFF30880EFF309807146F5
:10039000134A10472DE9F04182B004460D46084B40
:1003A0005F6BD3F838809E6A064800F057FE0095D0
:1003B00043463A463146204600F07AFE00BEFEE74C
:1003C00000ED00E01450000800BEFEE700BEFEE7AE
:1003D00000BEFEE770470000D70200084D0300088A
:0803E0009503000800BEFEE7D2
:1003E800B4540008000000207C000020B454000829
:1003F80000000010000000107C00002034300120B4
:080408000000001000000010CC
:1004100010B504460E4B18784FF47A73B3FBF0F323
:100420000C4A1068B0FBF3F000F09CF868B90F2C90
:1004300001D901200AE0002221464FF0FF3000F0F0
:100440004BF8054B1C60002000E0012010BD00BFF0
:10045000040000200C0000200800002008B50B4B11
:100460001A6842F400721A601A6842F480621A60D4
:100470001A6842F480721A60032000F00FF80F200F
:10048000FFF7C6FF01F042FB002008BD003C024020
:10049000014B1868704700BF8000002010B504466B
:1004A000C31E042B0FD80A4AD36823F4E0631B044D
:1004B0001B0C240204F4E064234343F0BF6343F4C1
:1004C0000033D36010BD9221024800F0A7FFEAE795
:1004D00000ED00E0204E000870B505460C461646BB
:1004E0000F2A25D80F2C28D81B4BDB68C3F3022317
:1004F000C3F10701042928BF04211A1D062A21D9A6
:10050000033B4FF0FF3202FA01F124EA01049C4060
:1005100002FA03F326EA03063443002D14DB240118
:10052000E4B205F1604505F5614585F8004370BD0D
:10053000AA210A4800F072FFD4E7AB21074800F077
:100540006DFFD1E70023DCE705F00F052401E4B2DD
:10055000034B5C55EBE700BF00ED00E0204E0008C8
:1005600014ED00E00138B0F1807F0BD24FF0E023B2
:100570005861054AF02182F8231000209861072273
:100580001A6170470120704700ED00E010B5044685
:10059000042800D040B9042C0CD04FF0E02213699D
:1005A00023F00403136110BD40F2C911054800F0A7
:1005B00035FFF0E74FF0E022136943F004031361C5
:1005C000F1E700BF204E0008002800F0588270B507
:1005D00082B0044603680F2B39D8236813F0010F4B
:1005E0004DD063682BB1B3F5803F02D0B3F5A02F97
:1005F00032D1804B9B6803F00C03042B36D07D4B2B
:100600009B6803F00C03082B2BD06368B3F5803F85
:100610005FD0B3F5A02F62D0764B1A6822F48032F7
:100620001A601A6822F480221A606368002B60D076
:10063000FFF72EFF05466F4B1B6813F4003F1ED1DA
:10064000FFF726FF401B6428F5D903201EE2E821AE
:10065000694800F0E3FEC0E7ED21674800F0DEFEE8
:10066000C7E7644B5B6813F4800FCED0614B1B6807
:1006700013F4003F03D06368002B00F0028223686C
:1006800013F0020F66D0E368012B41D823691F2BBA
:1006900044D8584B9B6813F00C0F4AD0554B9B68BD
:1006A00003F00C03082B3FD0E368002B77D0534BAB
:1006B00001221A60FFF7ECFE05464E4B1B6813F053
:1006C000020F63D1FFF7E4FE401B0228F5D9032097
:1006D000DCE1484A136843F480331360A5E7454BD7
:1006E0001A6842F480221A601A6842F480321A6052
:1006F0009BE7FFF7CDFE05463E4B1B6813F4003F1A
:10070000BDD0FFF7C5FE401B6428F5D90320BDE12D
:1007100040F21F11384800F081FEB7E74FF49071A6
:10072000354800F07BFEB4E7324B5B6813F4800F72
:10073000BAD1304B1B6813F0020F03D0E368012BD2
:1007400040F0A1812B4A136823F0F803216943EAA2
:10075000C1031360236813F0080F51D06369012BA4
:100760002FD863699BB3254B0122C3F8802EFFF776
:100770008FFE05461F4B5B6F13F0020F40D1FFF752
:1007800087FE401B0228F5D903207FE1194A136830
:1007900023F0F803216943EAC1031360DAE7174B3A
:1007A00000221A60FFF774FE0546124B1B6813F017
:1007B000020FCFD0FFF76CFE401B0228F5D90320B3
:1007C00064E14FF4B0710C4800F028FEC9E70B4B10
:1007D0000022C3F8802EFFF75BFE0546054B5B6FDA
:1007E00013F0020F0CD0FFF753FE401B0228F5D97F
:1007F00003204BE100380240544E000800004742FD
:10080000236813F0040F7CD0A368012B01D9052BBA
:1008100038D1A34B1B6C13F0805F39D100230193B7
:100820009F4B1A6C42F080521A641B6C03F0805389
:100830000193019B01259B4B1B6813F4807F29D0FA
:10084000A368012B3AD0052B3ED0954B1A6F22F0AE
:1008500001021A671A6F22F004021A67A368002BBC
:100860003CD0FFF715FE06468D4B1B6F13F0020FB1
:1008700045D1FFF70DFE801B41F288339842F3D932
:10088000032003E14FF4C671874800F0C7FDC0E7BD
:100890000025D0E7834A136843F480731360FFF7A1
:1008A000F7FD06467F4B1B6813F4807FC8D1FFF726
:1008B000EFFD801B0228F5D90320E7E0784A136F8B
:1008C00043F001031367C9E7754B1A6F42F0040246
:1008D0001A671A6F42F001021A67BFE7FFF7D8FDE7
:1008E00006466F4B1B6F13F0020F08D0FFF7D0FDC9
:1008F000801B41F288339842F3D90320C6E0002DD3
:100900003BD1A369022B3ED8A369002B00F0BD8028
:10091000634A926802F00C02082A00F09080022BD1
:1009200079D1E36913B1B3F5800F32D1236A3F2B3C
:1009300035D8636A323BB3F5BF7F36D8A36A022B42
:1009400005D0042B03D0062B01D0082B33D1E36A4A
:10095000023B0D2B35D8554B00221A66FFF798FD48
:1009600005464F4B1B6813F0007F30D0FFF790FD1A
:10097000401B0228F5D9032088E0494A136C23F074
:1009800080531364BDE740F2CF11474800F046FDA5
:10099000BAE74FF4EC71444800F040FDC6E740F27E
:1009A000D911414800F03AFDC3E74FF4ED713E48DC
:1009B00000F034FDC2E740F2DB113B4800F02EFDB1
:1009C000C5E74FF4EE71384800F028FDC3E7E3694E
:1009D000226A1343626A43EA8213A26A5208013A06
:1009E00043EA0243E26A43EA02632D4A53602F4B13
:1009F00001221A66FFF74CFD0446294B1B6813F0D1
:100A0000007F06D1FFF744FD001B0228F5D9032023
:100A10003CE000203AE0254B00221A66FFF738FD43
:100A200004461F4B1B6813F0007F06D0FFF730FD14
:100A3000001B0228F5D9032028E0002026E0012B26
:100A400026D0174B5B6803F48001E269914221D103
:100A500003F03F02216A8A421ED1616A47F6C072E2
:100A60001A408A421AD103F44032A16A8A421FD145
:100A700003F07063E26A93421CD1002006E001207B
:100A80007047012002E0012000E0002002B070BDAC
:100A90000120FBE70120F9E70120F7E70120F5E756
:100AA0000038024000700040544E000800004742E9
:100AB0000120EBE70120E9E708B5314B9B6803F023
:100AC0000C03042B57D0082B57D12D4B5A6802F03A
:100AD0003F025B6813F4800F2AD0294B5968C1F399
:100AE000881C4FEA4C11B1EB0C006EEB0E0E4FEA76
:100AF0008E1343EA90638101091A63EB0E03DB0056
:100B000043EA5173C90011EB0C0C43F10003590285
:100B100000234FEA4C2041EADC5103F0A3FA184BC2
:100B20005B68C3F3014301335B00B0FBF3F025E0E6
:100B3000134B5968C1F3881C4FEA4C11B1EB0C0000
:100B40006EEB0E0E4FEA8E1343EA90638101091A91
:100B500063EB0E03DB0043EA5173C90011EB0C0C8D
:100B600043F10003990200234FEA8C2041EA9C5193
:100B700003F078FAD3E7034800E0034808BD00BF5C
:100B80000038024000127A000024F400002800F02F
:100B9000F78070B50D4604460368013B0E2B6BD8F9
:100BA000072D6FD87A4B1B6803F00F03AB4208D2B6
:100BB000EBB2774A1370136803F00F03AB4240F0B7
:100BC000E180236813F0020F29D013F0040F04D042
:100BD000704A936843F4E0539360236813F0080F5E
:100BE00004D06C4A936843F460439360A3687BB17C
:100BF000802B0DD0902B0BD0A02B09D0B02B07D081
:100C0000C02B05D0D02B03D0E02B01D0F02B3FD14F
:100C1000604A936823F0F003A1680B439360236854
:100C200013F0010F4ED06368032B37D86368012B94
:100C30003AD09A1E012A3ED9564A126812F0020F83
:100C400000F0A28053498A6822F0030213438B60AC
:100C5000FFF71EFC06464F4B9B6803F00C036268CF
:100C6000B3EB820F2ED0FFF713FC801B41F28833C9
:100C70009842F0D9032076E040F25121464800F036
:100C8000CDFB8DE740F25221434800F0C7FB89E7D6
:100C900040F27521404800F0C1FBB9E74FF41F71E5
:100CA0003D4800F0BBFBC1E73A4A126812F4003F2E
:100CB000C8D1012057E0374A126812F0007FC1D135
:100CC000012050E0324B1B6803F00F03AB4207D901
:100CD000EAB22F4B1A701B6803F00F03AB4255D1D9
:100CE000236813F0040F14D0E3685BB1B3F5805FA1
:100CF00008D0B3F5A05F05D0B3F5C05F02D0B3F55F
:100D0000E05F31D1234A936823F4E053E1680B4359
:100D10009360236813F0080F15D023695BB1B3F516
:100D2000805F08D0B3F5A05F05D0B3F5C05F02D0F7
:100D3000B3F5E05F1ED1174A936823F4604321693D
:100D400043EAC1039360FFF7B7FE124B9B68C3F3FE
:100D50000313124AD35CD840114B1860114B18682A
:100D6000FFF756FB002070BD40F2BA210A4800F0A0
:100D700055FBC7E740F2C121074800F04FFBDAE717
:100D8000012070470120EEE70120ECE70120EAE7AF
:100D9000003C024000380240544E00082450000835
:100DA0000C00002008000020014B1868704700BFAD
:100DB0000C00002000B583B08C461946134652B192
:100DC000074A53B10193009263460246054800F07A
:100DD00045F900F00BF8044AF3E7034BF2E700BFD4
:100DE000844E0008944E0008F450000808B50348EB
:100DF00000F04EF9012000F025F800BFC44E0008B5
:100E000008B503460C4A12685AB10B4A10680333FE
:100E100023F003030344094A934206D8064A1360A9
:100E200008BD054A06491160EFE703F09DFA0C235F
:100E300003604FF0FF30F3E78400002000FC012046
:100E40003430012000B530B9044D1824204629461D
:100E5000ABBE0446FEE7024DF7E700BF26000200E6
:100E6000230002002DE9F04184B0234F01970326AF
:100E7000039600230293012401AD20462946ABBE10
:100E800080461E4BC3F8008001970396042302930B
:100E900020462946ABBE8046194BC3F80080019717
:100EA00003960823029320462946ABBE0446154B01
:100EB0001C60B4F1FF3F01D000230AE0104B1A6818
:100EC000104B1A60F8E7104A4FF0FF3142F8331028
:100ED0000133132BF7DD0C4B084A12681A6000220D
:100EE0005A60074909689960DA600649096819611A
:100EF0005A6104B0BDE8F081D84E00080801002016
:100F00000C01002004010020100100202DE9F04315
:100F100083B0814688462A4B00934F2301931527BF
:100F20006C4638462146ABBE0746AFBB244B002279
:100F300083F84F20009A3E463C463D4607E001328A
:100F40001E46204B43F8252001350124013292F939
:100F50000030FBB164B91C4959560029F6DB092B56
:100F6000F4D0082D16DC222BE9D0272BE9D1E6E7B7
:100F700036B19E42EAD1002313703E463C46E5E777
:100F800011495956002901DB092BDFD100231370C9
:100F90003446DBE73DB900E00025094B00221A701A
:100FA000084A13600135074B002243F82520C9F891
:100FB0000050C8F80030FFF755FF03B0BDE8F083DC
:100FC00088000020D8000020A5520008F0B50C468B
:100FD00050B106460027112528463946ABBE0546C6
:100FE000EB1735607360B76014B100232360636052
:100FF0000020F0BD2DE9F04385B004460F4643566E
:1010000033BB042528462146ABBE0446384605B00E
:10101000BDE8F08314F901CB04AA1A4402F810CCFD
:101020000133AB42F6D304AA1344002203F8102C78
:101030004FF00408E94640464946ABBE8046761B61
:10104000002EE3D03546102E28BF10250023E8E7F8
:101050000E46F5E708B5FFF7CDFF08BD0FB400B5A4
:1010600083B004AB53F8042B01938021074803F0AD
:1010700023FB002804DC03B05DF804EB04B07047E8
:1010800001460248FFF7E6FFF5E700BFB001002088
:1010900010B5044603F0C2FA01462046FFF7DAFF16
:1010A00001210248FFF7D6FF10BD00BF744F0008B2
:1010B000F8B504460D4617461E462748FFF7CEFFF3
:1010C00021682648FFF7CAFF61682548FFF7C6FF79
:1010D000A1682448FFF7C2FFE1682348FFF7BEFF7D
:1010E00021692248FFF7BAFF61692148FFF7B6FF7F
:1010F000A1692048FFF7B2FFE1691F48FFF7AEFF83
:101100001E48FFF7ABFF29461D48FFF7A7FF1D4C00
:10111000E16A1D48FFF7A2FF216B1C48FFF79EFF05
:10112000E16B1B48FFF79AFF15F0800F0AD115F409
:10113000004F0CD11748FFF791FF06991648FFF7AB
:101140008DFFF8BD39461548FFF788FFEFE73146B8
:101150001348FFF783FFEDE7DC4E0008EC4E000874
:10116000FC4E00080C4F00081C4F00082C4F0008D4
:101170003C4F00084C4F00085C4F00086C4F0008C3
:10118000784F000800ED00E0884F0008984F0008F5
:10119000A84F0008D84F0008E04F0008B84F0008DB
:1011A000C84F000838B583691B888B4201D00020E6
:1011B00038BD044603684568013B302B69D8DFE839
:1011C00003F046211C1C5E30332D191968191919BA
:1011D00019193619246819276839686868686868B1
:1011E000686868686868686868686868686868687F
:1011F000681919004FF0FF330360A3690233A3613C
:101200000120D5E700230360F7E700230360F4E73C
:1012100000232B606B60AB60EB60EEE700230360A4
:10122000EBE7AB680360E8E700230360E5E7002332
:101230000360E2E7BFF34F8F1749CA6802F4E06228
:10124000164B1343CB60BFF34F8F00BFFDE714492C
:10125000286803F0D9F940B96B6813B901232360FA
:10126000CBE7042B05D0082B06D04FF0FF332360CB
:10127000C3E702232360C0E703232360BDE72B6895
:10128000023B012B02D9AB680360B6E70023036081
:10129000B3E700208CE700BF00ED00E00400FA0592
:1012A000D84E000808B500F009F8024A024B9A60CF
:1012B00008BD00BF0000000800ED00E0024B4FF049
:1012C00000629A60704700BF00ED00E0224B9B680F
:1012D00003F00C03042B14D0082B16D01BB11F4BAA
:1012E0001F4A1A6002E01D4B1D4A1A601A4B9B6888
:1012F000C3F303131B4AD15C184A1368CB40136035
:101300007047164B184A1A60F0E7134B59685A6831
:1013100002F03F0211F4800F13D0134BB3FBF2F332
:101320000D4A5268C2F3881202FB03F30A4A52685C
:10133000C2F3014201325200B3FBF2F3074A1360D9
:10134000D4E7074BB3FBF2F3034A5268C2F38812A7
:1013500002FB03F3EAE700BF003802400C00002064
:101360000024F4002450000800127A0030B595B033
:1013700000240194224B1A6C42F080521A641B6CB8
:1013800003F080530193019B02941E4B1A6842F4B0
:1013900080421A601B6803F480430293029B01237E
:1013A00008934FF4803309934FF480030F9308237D
:1013B00010934FF4A87311930225129507231393EA
:1013C0000E9508A8FFF700F90F23039304950594E1
:1013D0004FF4A05306934FF480530793052103A8BD
:1013E000FFF7D4FBFFF7E0FC074BA3FB00308009BD
:1013F000FFF7B8F80420FFF7C9F815B030BD00BFFB
:101400000038024000700040D34D621008B5FFF76D
:1014100025F8FFF7ABFFFFF759FF08BD08B50A46EF
:1014200001460248FFF71AFEFEE700BF34500008ED
:1014300008B50021024B186801F0C0F808BD00BFD4
:101440006C02002000B583B002F0A3F900230193E1
:10145000012810D0022814D0019B4BB14FF0E0239B
:101460004FF08052C3F8042DBFF34F8FBFF36F8F3F
:1014700003B05DF804FB01A9054B186801F09EF864
:10148000EAE701A9034B186801F098F8E4E700BF08
:101490003C0200204802002038B505460C4603F007
:1014A00065F8611B0131B0FBF1F301FB1300284427
:1014B00038BD00002DE9F04184B005462948FFF70A
:1014C000E7FD002303932A68274B1B689A4202D04A
:1014D000002637461AE0142001F0BAFCF8E7039B17
:1014E000224A12685A600137BFB21F814FF4FA6175
:1014F0004FF47A70FFF7D0FF039B588100234FF021
:10150000FF3203A91A48006800F017FFD5F80880D9
:1015100001F088FB02460024009423460121404646
:1015200001F0CAFF23464FF0FF322146286901F03F
:101530009EF80C2002F020FF03900028E6D06B6894
:10154000036004210320FFF7A7FFC0B20328C6D021
:101550000428CBD1039B074A12685A600136B6B201
:101560001E81C3E7645000084002002050020020A2
:1015700064020020580200200F4B1B68834213D0E6
:101580000E4B1B68834211D00D4B1B6883420FD05A
:101590000C4B1B6883420DD00B4B1B68834201D060
:1015A000FF207047002070470120704702207047DD
:1015B00003207047042070473802002044020020B6
:1015C0005002002058020020640200202DE9F04F54
:1015D00087B005464E48FFF75BFD0023059399460B
:1015E0009A461F4698460293039306E0494A1368B9
:1015F00001331360204602F0C7FE00234FF0FF3294
:1016000005A9686801F033F8059C6368686883423F
:10161000ECD1FFF7B1FF0646B4F80AB02068FFF737
:10162000ABFF0346228900925A4631463A48FFF7FB
:1016300015FD059C2068FFF79FFF01283BD002287D
:101640004FD0059802F0A0FE08EB0A04E3194B44C2
:10165000B3F5FA6FD1DB6868FFF78EFF01462F48BC
:10166000FFF7FCFC21462E48FFF7F8FC41462D48C9
:10167000FFF7F4FC51462C48FFF7F0FC07EB09019B
:101680002A48FFF7EBFC39462948FFF7E7FC4946B3
:101690002848FFF7E3FC284B1B78002B35D1264B5D
:1016A00001221A7000234FF0FF32194623480068C8
:1016B00000F0DDFFA1E708F101081FFA88F824898E
:1016C000039BE31A1AFA83FA1FFA8AFA0AF1FF3A1D
:1016D0001FFA8AFA524641461948FFF7BFFC0394A5
:1016E000AFE70137BFB22489029BE31A19FA83F9E5
:1016F0001FFA89F909F1FF391FFA89F94A46394673
:101700001048FFF7ABFC02949BE701F083FAC6E7B1
:1017100080500008740200209C500008F850000817
:10172000305100084C5100086851000880510008F1
:101730009C510008B85100083002002070020020BF
:10174000C4500008DC50000838B504460D4600229D
:10175000002302F069FCD0B90022114B2046294633
:1017600002F06CFC08B1002038BD02F0FFFE02F070
:1017700075F909A3D3E9002302F004FB02460B46E6
:101780002046294602F064FC18B10120ECE7002055
:10179000EAE70020E8E700BF0000C0FFFFFFDF41ED
:1017A0000000F03F0000000070B584B00546002343
:1017B000039305E0039802F0E7FD1B48FFF74EFC9A
:1017C00000234FF0FF3203A9184C206800F04FFFB0
:1017D00013A1D1E90001FFF7B7FF0128EAD0AE68F5
:1017E00001F020FA024600240094234601213046ED
:1017F00001F062FE23464FF0FF322146286900F0D7
:1018000036FF2346224603A90398406800F095FD61
:101810000128D5D0039802F0B7FDD1E7AFF30080DF
:101820007B14AE47E17A843FD05100086402002067
:101830002DE9F04F9DB0002002F0F8FE02F068FEA6
:10184000894C009401230022C821884801F01AFE27
:10185000DFF890A2CAF80000009402230022C821F9
:10186000834801F00FFE834F3860834B00930123C0
:101870000022C821814801F005FE814D2860002228
:101880000C21052000F035FDDFF85CB2CBF800003C
:1018900000220C21052000F02CFDDFF85082C8F852
:1018A000000000220C21052000F023FD754B18607C
:1018B00000220C21052000F01CFD734A106000225C
:1018C0000C210A2000F015FD704908600322002158
:1018D000012000F00EFDDFF81892C9F80000002387
:1018E0001A46194600F0C3FE03220021012000F031
:1018F00000FD674E306000231A46194600F0B7FE1F
:10190000012000F0EAFD634B186000231A461946D7
:1019100000F013FD03220021012000F0EAFC5E4CE0
:10192000206000231A46194600F0A1FE012000F0B5
:10193000D4FD5A4B186000231A46194600F0FDFCEE
:10194000012000F0CAFD564B186000231A461946C4
:1019500000F08DFE534B1793DBF800201892DAF855
:101960000030199300231A93D9F800101B914E49A7
:101970001291D8F8001013913868149015933068BC
:1019800016904A480D903F4800680E900F931093B0
:101990001193474E08963C4E366809960A930B936E
:1019A0000C93444F0397394F3F6804972D68059572
:1019B000069323680793002A4FD000294DD00028B2
:1019C0004BD0002E49D0002F47D03B4D354B0193D3
:1019D0000126009617AB4FF480623849284601F083
:1019E000A5F80446304B0193009612AB4FF4806289
:1019F0003349284601F09AF80440324D2B4B0193AD
:101A0000022600960DAB4FF480622F49284601F064
:101A10008DF80440264B0193009608AB4FF480628A
:101A20002A49284601F082F80440224B01930323FF
:101A3000009303AB4FF400622549264801F076F885
:101A40000440012C05D12448FFF722FB01F0A0F847
:101A500006E02248FFF71CFB02E02148FFF718FBD5
:101A600000201DB0BDE8F08F45140008EC510008BF
:101A7000FC5100087C020020311400080C520008C0
:101A80008002002050020020580200206402002042
:101A900048020020600200206C0200203402002076
:101AA00070020020400200204C020020540200205E
:101AB0005C02002068020020B514000820520008D3
:101AC00028520008CD15000830520008385200088E
:101AD00040520008A9170008485200085C5200084C
:101AE00074520008780200203802002044020020CE
:101AF0003C020020FEE7FEE700B583B000F026F9C7
:101B00000190019B03B05DF804FB70477047000033
:101B1000124A12F0070F1ED0D11D21F00701C1F5A6
:101B2000963313440A460E48026000214160134474
:101B3000083B23F007030B48036059601960991AAA
:101B400051601360084B1960084B1960084B4FF047
:101B500000421A6070474FF49633E4E78802002091
:101B6000942E012084020020902E01208C2E012032
:101B7000882E0120164B1A461B688342FBD35168FE
:101B800002EB010C844509D0416800EB010C634570
:101B900009D00360904219D010607047406801443A
:101BA00051601046F0E710B40A4C2468A3420BD0F1
:101BB0005B681944416013681B680360904200D061
:101BC00010605DF8044B70470460F7E7704700BF92
:101BD000942E01208402002070B5054601F01AF809
:101BE000394B1B689BB1394B1B681D4212D135B173
:101BF000083515F0070F02D025F007050835D5B1D7
:101C0000334B1B68AB421AD3324A14681DE0FFF70E
:101C10007FFFE8E701F0A0F80026FFF76BFF16F062
:101C2000070F4FD04FF0500383F31188BFF36F8F2E
:101C3000BFF34F8FFEE701F08FF80026EDE701F0CC
:101C40008BF80026E9E722461C466368AB4202D2C5
:101C50002368002BF7D11C4B1B68A34214D01668D5
:101C600008362368136063685B1B102B14D9601956
:101C700010F0070F0CD04FF0500383F31188BFF31F
:101C80006F8FBFF34F8FFEE701F066F80026C4E7C1
:101C900043606560FFF76EFF62680D490B689B1A31
:101CA0000B600D4909688B4201D20B490B60074B51
:101CB0001B68134363600023236001F04DF8002E7E
:101CC000ADD1AAE7304670BD84020020882E0120E5
:101CD0008C2E0120942E0120902E012080B338B547
:101CE0000446A0F1080550F8043C164A1268134255
:101CF00008D14FF0500383F31188BFF36F8FBFF308
:101D00004F8FFEE750F8081C41B14FF0500383F3AA
:101D10001188BFF36F8FBFF34F8FFEE723EA0203F3
:101D200040F8043C00F076FF54F8041C064A13689F
:101D30000B4413602846FFF71DFF01F00DF838BD76
:101D4000704700BF882E01208C2E0120014B18689F
:101D5000704700BF8C2E01200B4B1B68B3F1FF3F77
:101D600008D04FF0500383F31188BFF36F8FBFF398
:101D70004F8FFEE74FF0500383F31188BFF36F8F4F
:101D8000BFF34F8FFEE700BF100000200648006839
:101D9000006880F3088862B661B6BFF34F8FBFF367
:101DA0006F8F00DF00BF000008ED00E04FF0807390
:101DB00040F8043C21F0010140F8081C054B40F8B4
:101DC0000C3C40F8202C6FF0020340F8243C4438CF
:101DD000704700BF591D000800000000000000000F
:101DE000074B19680868B0E8F04F80F30988BFF323
:101DF0006F8F4FF0000080F311887047AFF30080C1
:101E0000E42E01204FF0500383F31188BFF36F8F4E
:101E1000BFF34F8F0B4A136801331360012B00D0BF
:101E200070474FF0E023D3F8043D13F0FF0FF7D0D5
:101E30004FF0500383F31188BFF36F8FBFF34F8FC1
:101E4000FEE700BF10000020094B1B6843B94FF0AC
:101E5000500383F31188BFF36F8FBFF34F8FFEE7FB
:101E6000013B034A13600BB983F31188704700BF2D
:101E70001000002000000000000000000000000032
:101E8000EFF30980BFF36F8F154B1A681EF0100F28
:101E900008BF20ED108A20E9F04F10604DF8043D96
:101EA0004FF0500080F31188BFF34F8FBFF36F8F57
:101EB00001F03AF84FF0000080F3118808BC19686F
:101EC0000868B0E8F04F1EF0100F08BFB0EC108AA1
:101ED00080F30988BFF36F8F704700BFAFF30080B6
:101EE000E42E012008B54FF0500383F31188BFF3AF
:101EF0006F8FBFF34F8F00F09BFE28B14FF0E023B0
:101F00004FF08052C3F8042D002383F3118808BDDD
:101F1000064B1B68064AA2FB03239B09013B4FF0BB
:101F2000E022536107231361704700BF0C000020BB
:101F3000D34D62104FF0E023D3F8002D344B9A427A
:101F40001CD04FF0E023D3F8002D324B9A421ED024
:101F500010B582B0304B1A78D2B20192FF221A70BB
:101F60001B78DBB28DF803309DF8033003F050038B
:101F70002A4A13702A4B07221A601BE04FF05003C5
:101F800083F31188BFF36F8FBFF34F8FFEE74FF0DE
:101F9000500383F31188BFF36F8FBFF34F8FFEE7BA
:101FA0001F4A1368013B13609DF803305B00DBB2EE
:101FB0008DF803309DF8033013F0800FF0D1184AEC
:101FC00013681B02136003F4E0631360019BDBB230
:101FD000114A13704FF0E024D4F8203D43F470030D
:101FE000C4F8203DD4F8203D43F07043C4F8203DB0
:101FF000FFF78EFF0B4B00221A60D4F8343F43F0FA
:102000004043C4F8343FFFF7C1FEFFF7A5FE00BF11
:1020100071C20F4170C20F4100E400E09C2E01200C
:10202000A02E012010000020EFF305830F2B0FD905
:10203000114A9B5CDBB2114A12789A4208D94FF0E0
:10204000500383F31188BFF36F8FBFF34F8FFEE709
:102050004FF0E023D3F80C3D03F4E063084A126824
:10206000934208D94FF0500383F31188BFF36F8F69
:10207000BFF34F8FFEE77047F0E300E09C2E012096
:10208000A02E012000F1080343604FF0FF32826070
:10209000C36003610023036070470023036170473E
:1020A00043684B609A688A60516099600861036870
:1020B00001330360704730B40D68B5F1FF3F11D0B4
:1020C00000F108031C465B681A68AA42FAD96368E3
:1020D0004B6099608C606160086103680133036044
:1020E00030BC70470469F2E70369416882688A601E
:1020F000416851605A68824205D000220261186826
:1021000001381860704782685A60F6E710B50446D7
:10211000FFF778FEA26BE36B9A4204D00024FFF72E
:1021200093FE204610BD0124F9E710B50446FFF7E1
:1021300069FEA36B23B90124FFF786FE204610BD7C
:102140000024F9E770B504461546866B026C5AB94F
:1021500003681BB100200136A66370BD406801F022
:102160007FF800236360F6E76DB9806802F014F928
:10217000226CA3681344A3606268934219D3236856
:10218000A3602846E7E7C06802F006F9226C5142D6
:10219000E3689B1AE3602268934202D263680B44AF
:1021A000E360022D01D00020D5E726B1013E0020DA
:1021B000D1E72846CFE70020CDE70346026C6AB19D
:1021C00010B50846D9681144D9605C68A14201D3B2
:1021D0001968D960D96802F0DFF810BD704738B5CA
:1021E0000546FFF70FFE95F8454064B201E0013C5B
:1021F00064B2002C0ADD6B6A43B105F1240000F0E3
:102200002DFF0028F3D000F0C5FFF0E7FF2385F88D
:102210004530FFF719FEFFF7F5FD95F8444064B22D
:1022200001E0013C64B2002C0ADD2B6943B105F1E9
:10223000100000F013FF0028F3D000F0ABFFF0E730
:10224000FF2385F84430FFF7FFFD38BD38B5E0B116
:102250000D460446FFF7D6FD2368E26B216C01FBB7
:10226000023060600020A063A360013A02FB0133EA
:10227000E360FF2384F8443084F84530FDB92369D6
:1022800063B9FFF7E1FD012038BD4FF0500383F340
:102290001188BFF36F8FBFF34F8FFEE704F110007B
:1022A00000F0DCFE0028ECD04FF0E0234FF080522D
:1022B000C3F8042DBFF34F8FBFF36F8FE1E704F135
:1022C0001000FFF7DFFE04F12400FFF7DBFED8E784
:1022D00038B51D46049C0B4649B92460E06323646D
:1022E00001212046FFF7B2FF84F84C5038BD226030
:1022F000F4E740B94FF0500383F31188BFF36F8FB9
:10230000BFF34F8FFEE7F0B583B00C461546064687
:1023100089B101FB00F05030FFF75EFC074638B191
:1023200000902B4600F1500221463046FFF7D0FFC7
:10233000384603B0F0BD0846EDE7F0B585B0019230
:1023400088B10F461D460446B1B1022D20D1E36B82
:10235000012B1DD04FF0500383F31188BFF36F8F13
:10236000BFF34F8FFEE74FF0500383F31188BFF3A5
:102370006F8FBFF34F8FFEE7036C002BE5D04FF05C
:10238000500383F31188BFF36F8FBFF34F8FFEE7C6
:1023900000F006FF064658B9019B002B48D04FF0CD
:1023A000500383F31188BFF36F8FBFF34F8FFEE7A6
:1023B00000263DE02A4639462046FFF7C3FE636A01
:1023C0007BB948B14FF0E0234FF08052C3F8042DA1
:1023D000BFF34F8FBFF36F8FFFF736FD012005B0BE
:1023E000F0BD04F1240000F039FE0028F4D04FF0D5
:1023F000E0234FF08052C3F8042DBFF34F8FBFF39B
:102400006F8FE9E7FFF720FD0020E8E702A800F062
:102410006BFE012619E0002384F8443021E00023FC
:1024200084F8453023E02046FFF7D9FE00F094FC05
:10243000FFF7E8FCA26BE36B9A42BBD3022DB9D045
:10244000019B002BDED0002EE0D0FFF7FDFC00F05A
:10245000E1FBFFF7D7FC94F8442052B2B2F1FF3F02
:10246000D9D094F8452052B2B2F1FF3FD7D0FFF750
:10247000EBFC01A902A800F04DFED8B92046FFF7F9
:1024800045FE0028CFD0019904F1100000F0B2FD04
:102490002046FFF7A4FE00F05FFC0028C8D14FF0F3
:1024A000E0234FF08052C3F8042DBFF34F8FBFF3EA
:1024B0006F8FBDE72046FFF792FE00F04DFC002035
:1024C0008DE748B108B5002141600160C1600B464D
:1024D0000A46FFF732FF08BD704710B502460021DB
:1024E0000120FFF706FF0446FFF7EBFF204610BD73
:1024F0002DE9F84390B10F4616461C460546B1B18A
:10250000022C20D1EB6B012B1DD04FF0500383F335
:102510001188BFF36F8FBFF34F8FFEE74FF050036B
:1025200083F31188BFF36F8FBFF34F8FFEE7036C08
:10253000002BE5D04FF0500383F31188BFF36F8F6A
:10254000BFF34F8FFEE7FFF76FFDEFF311894FF0F9
:10255000500383F31188BFF36F8FBFF34F8FAA6BC4
:10256000EB6B9A4206D3022C04D0002089F3118829
:10257000BDE8F88395F845804FFA88F82246394639
:102580002846FFF7DFFDB8F1FF3F06D008F1010351
:102590005BB285F845300120E8E76B6A0BB9012092
:1025A000E4E705F1240000F059FD18B126B101203F
:1025B0003060DBE70120D9E70120D7E768B170B5CB
:1025C0000C460546036C8BB14FF0500383F3118822
:1025D000BFF36F8FBFF34F8FFEE74FF0500383F3CE
:1025E0001188BFF36F8FBFF34F8FFEE70368EBB126
:1025F000FFF71AFDEFF311864FF0500383F31188B4
:10260000BFF36F8FBFF34F8FAA6BEB6B934226D94B
:1026100095F845305BB20132AA63B3F1FF3F11D0A8
:1026200001335BB285F84530012019E04368002B87
:10263000DED04FF0500383F31188BFF36F8FBFF3E9
:102640004F8FFEE76B6A0BB9012009E005F124000A
:1026500000F004FD38B144B10120206000E000200A
:1026600086F3118870BD0120FAE70120F8E72DE913
:10267000F04184B00192A0B10E4698460446C9B11B
:1026800000F08EFD054608BB019B002B00F0878003
:102690004FF0500383F31188BFF36F8FBFF34F8F59
:1026A000FEE74FF0500383F31188BFF36F8FBFF342
:1026B0004F8FFEE7036C002BE2D04FF0500383F303
:1026C0001188BFF36F8FBFF34F8FFEE7002566E0E1
:1026D000E56831462046FFF770FDB8F1000F20D1C4
:1026E0007B1EA36323683BB123694BB9FFF7ACFBA7
:1026F000012004B0BDE8F08100F00CFE6060F3E75B
:1027000004F1100000F0AAFC0028EFD04FF0E02305
:102710004FF08052C3F8042DBFF34F8FBFF36F8F7C
:10272000E4E7E560636A002BE0D004F1240000F0E8
:1027300095FC0028DAD04FF0E0234FF08052C3F828
:10274000042DBFF34F8FBFF36F8FCFE7FFF77CFBF5
:102750000020CEE702A800F0C7FC012529E00023F5
:1027600084F8443031E0002384F8453033E0FFF74B
:1027700049FB606800F024FDFFF766FB3BE0204664
:10278000FFF72DFD00F0E8FA09E02046FFF727FDEE
:1027900000F0E2FA2046FFF7C8FC002842D1FFF71C
:1027A00031FBA76B002F93D1019B002BCED0002DC6
:1027B000D0D0FFF749FB00F02DFAFFF723FB94F888
:1027C000442052B2B2F1FF3FC9D094F8452052B232
:1027D000B2F1FF3FC7D0FFF737FB01A902A800F015
:1027E00099FC0028D1D12046FFF79FFC0028C6D0D5
:1027F0002368002BBBD0019904F1240000F0FAFB00
:102800002046FFF7ECFC00F0A7FA0028C7D14FF0F4
:10281000E0234FF08052C3F8042DBFF34F8FBFF376
:102820006F8FBCE7002064E70023072B0CD8074A12
:1028300052F833200AB10133F7E7044A42F8331063
:1028400002EBC30358607047704700BFA42E0120FD
:1028500070B504460D461646FFF7D4FA94F8443096
:102860005BB2B3F1FF3F0DD094F845305BB2B3F1EA
:10287000FF3F0BD0FFF7E8FAA36B5BB12046FFF7F1
:10288000AEFC70BD002384F84430EDE7002384F8EB
:102890004530EFE73246294604F1240000F0C2FB40
:1028A000ECE70000084B1B681B6823B9074B4FF08F
:1028B000FF321A607047044B1B68DB68DB685A689C
:1028C000024B1A60704700BFE82E0120982F0120AC
:1028D00010B50446006BFFF701FA2046FFF7FEF93A
:1028E00010BD2DE9F04780460D4617469946089ED3
:1028F000DDF824A00A9C9200A521206B01F05AFD6E
:10290000236B07F18042013A03EB820727F00707A8
:102910004FF0000CBCF1090F0BD815F90C2004EB9B
:102920000C0383F8342015F90C3013B10CF1010CB1
:10293000F0E7002384F83D30042E00D90426E66237
:10294000A6640025E564201DFFF7A7FB04F118002D
:10295000FFF7A3FB2461C6F10506A6616462256545
:1029600084F854504A4641463846FFF71FFA206023
:10297000BAF1000F01D0CAF80040BDE8F0870000AE
:1029800038B5002407E004EB840293000E48184495
:10299000FFF778FB0134042CF5D90C4D2846FFF7DE
:1029A00071FB0B4C2046FFF76DFB0A48FFF76AFBF3
:1029B0000948FFF767FB0948FFF764FB084B1D60F8
:1029C000084B1C6038BD00BFF02E01206C2F012089
:1029D000802F0120A02F0120CC2F0120B82F012013
:1029E000E82E0120EC2E012010B50446FFF70AFA6C
:1029F000224A136801331360214B1B685BB1214BE2
:102A00001B686BB91E4B1B68DA6AE36A9A4207D8E7
:102A10001B4B1C6004E01A4B1C601368012B29D06F
:102A2000194A1368013313602364E06A0123834069
:102A3000164A11680B43136000EB8000211D144BF4
:102A400003EB8000FFF72CFBFFF7FEF90D4B1B6833
:102A50007BB10B4B1B68DA6AE36A9A4209D24FF0EA
:102A6000E0234FF08052C3F8042DBFF34F8FBFF324
:102A70006F8F10BDFFF784FFD2E700BF542F0120F6
:102A8000E42E0120B42F0120642F0120682F0120A3
:102A9000F02E012070B504460D461D4B1E681D4BDF
:102AA00018680430FFF720FB50B91A4B1B68DA6A2C
:102AB000012303FA02F218490B6823EA02030B60B0
:102AC000B4F1FF3F0DD03444124B1B685C60A6424A
:102AD00010D9124B18680F4B19680431FFF7EBFA45
:102AE00070BD002DEFD00B4B196804310C48FFF777
:102AF000D7FAF5E70B4B1868064B19680431FFF756
:102B0000DAFA094B1B68A342EAD9074B1C60E7E7D6
:102B1000E02F0120E42E0120682F0120EC2E01205F
:102B2000B82F0120E82E0120982F01202DE9F04335
:102B300085B00746884614461E469000FFF74CF8BD
:102B4000F0B181465820FFF747F80546A0B1C0F81C
:102B50003090D5B10023039302950D9B01930C9BFC
:102B600000933346224641463846FFF7BAFE2846D0
:102B7000FFF73AFF012005E04846FFF7AFF8E8E726
:102B80004FF0FF3005B0BDE8F0834FF0FF30F9E7BC
:102B900000B583B0194B019300230093822218499A
:102BA0001848FFF7C3FF012807D0012808D0B0F16B
:102BB000FF3F1AD003B05DF804FB00F03BFCF4E7E4
:102BC0004FF0500383F31188BFF36F8FBFF34F8F24
:102BD0000D4B4FF0FF321A600C4B01221A600C4B68
:102BE00000221A60FFF7A6F9E4E74FF0500383F3E1
:102BF0001188BFF36F8FBFF34F8FFEE7942F012033
:102C00008C520008F92E0008982F0120B42F0120C3
:102C1000E02F0120024A136801331360704700BFA0
:102C2000602F0120014B1868704700BFE02F012082
:102C3000F8B53E4B1B68002B6AD13D4B1D68013532
:102C40001D60C5B93B4B1B681B6843B14FF0500377
:102C500083F31188BFF36F8FBFF34F8FFEE7354AC1
:102C60001168354B186810601960344A13680133D5
:102C70001360FFF717FE324B1B68AB423ED90027AB
:102C8000304B1B68DB6A03EB83039A002E4B9B5887
:102C9000012B00D901272D4B1B68002B3FD1FEF7DC
:102CA00034FF3CE00127234B1B681B6843B3214BD7
:102CB0001B68DB68DC6863689D4226D3261D3046AE
:102CC000FFF712FAA36A1BB104F11800FFF70CFA20
:102CD000E36A01229A401E49086802430A6003EB36
:102CE00083039A00314618481044FFF7D9F9E26A85
:102CF000144B1B68DB6A9A42D4D2D4E70027D2E790
:102D00000F4B4FF0FF321A60BAE70D4A1360B7E776
:102D10000E4A136801331360FEF7F7FE00270D4BD0
:102D20001B6803B101273846F8BD00BF602F0120A2
:102D3000E02F0120E82E0120EC2E01209C2F012005
:102D4000982F0120E42E0120F02E01205C2F01207D
:102D5000682F0120E42F012038B5354B1B6843B99B
:102D60004FF0500383F31188BFF36F8FBFF34F8F82
:102D7000FEE7FFF747F82E4B1A68013A1A601B6806
:102D8000002B4FD12B4B1B680BB900244BE00024C8
:102D9000294B1B681BB3284BDB68DC6804F1180067
:102DA000FFF7A2F9251D2846FFF79EF9E06A0123E7
:102DB0008340224A11680B43136000EB80002946D0
:102DC0001F4B03EB8000FFF76BF9E26A1D4B1B689A
:102DD000DB6A9A42DCD31C4B01221A60D8E70CB1A3
:102DE000FFF760FD194B1C6884B9174B1C68D4B100
:102DF0004FF0E0234FF08052C3F8042DBFF34F8F04
:102E0000BFF36F8F01240EE0013C07D0FFF710FFE6
:102E10000028F9D00C4B01221A60F5E70B4B002279
:102E20001A60E2E70024FFF70FF8204638BD00BF24
:102E3000602F0120542F0120A02F0120682F012096
:102E4000F02E0120E42E0120E42F01205C2F012030
:102E500010B5A8B10446104B1B6843B14FF05003A6
:102E600083F31188BFF36F8FBFF34F8FFEE7FFF738
:102E7000D1FE00212046FFF70DFEFFF76DFF48B998
:102E80004FF0E0234FF08052C3F8042DBFF34F8F73
:102E9000BFF36F8F10BD00BF602F0120134B1B6865
:102EA00013B310B5FFF7B6FE114B1C68FFF754FFC4
:102EB00024B90E4B1B68002BF4D110BDFEF7A2FF06
:102EC0000B4BDB68DC68201DFFF70EF9094A13681D
:102ED000013B1360054A1368013B1360FEF7B4FF22
:102EE0002046FFF7F5FCE4E7704700BF582F0120AC
:102EF000CC2F0120542F012008B50BE04FF0E02328
:102F00004FF08052C3F8042DBFF34F8FBFF36F8F84
:102F1000FEF7F2FDFFF7C2FF024B1B68012BEDD855
:102F2000F6E700BFF02E012008B52D4B1B681BB142
:102F30002C4B01221A6008BD2A4B00221A602A4B32
:102F40001B681B6B1A68B2F1A53F03D15A68B2F136
:102F5000A53F1BD0244B186819683431FEF7CBFD10
:102F6000224B1B68B3FA83F3DBB2C3F11F0303EBFD
:102F700083018A001E498A588AB94FF0500383F3AF
:102F80001188BFF36F8FBFF34F8FFEE79A68B2F1DE
:102F9000A53FDFD1DB68B3F1A53FDBD1E0E7144902
:102FA00003EB830082000A4450684068506003EBE2
:102FB000830C4FEA8C0208321144884209D003EB9B
:102FC00083039A000A4B13445B68DA68064B1A6065
:102FD000B1E7406862469100054A0A445060EEE756
:102FE000602F0120E42F0120E42E0120682F012012
:102FF000F02E012058B110B50C46094A116818315D
:10300000FFF759F801212046FFF744FD10BD4FF0AE
:10301000500383F31188BFF36F8FBFF34F8FFEE729
:10302000E42E012038B570B10D4614460A4A1168E5
:103030001831FFF735F80CB14FF0FF35214628461F
:10304000FFF728FD38BD4FF0500383F31188BFF31D
:103050006F8FBFF34F8FFEE7E42E012038B5C368B2
:10306000DC6824B304F118052846FFF73DF8184B37
:103070001B682BBB251D2846FFF736F8E06A0123A5
:103080008340144A11680B43136000EB800029460B
:10309000114B03EB8000FFF703F8E26A0F4B1B684C
:1030A000DB6A9A4211D901200D4B186038BD4FF0F0
:1030B000500383F31188BFF36F8FBFF34F8FFEE789
:1030C00029460848FEF7ECFFE7E70020EEE700BFDF
:1030D000602F0120682F0120F02E0120E42E012016
:1030E000E42F0120A02F012030B1084A12680260AD
:1030F000074A1268426070474FF0500383F311880B
:10310000BFF36F8FBFF34F8FFEE700BF9C2F0120EF
:10311000E02F012038B5C0B10C460546F1B1FEF7ED
:1031200071FE1A4B1A682368B3F1FF3F27D0286855
:1031300017490968884202D06968914224D96968B0
:10314000501A834213D801241AE04FF0500383F33E
:103150001188BFF36F8FBFF34F8FFEE74FF050031F
:1031600083F31188BFF36F8FBFF34F8FFEE78A1A87
:10317000134423602846FFF7B7FF002400E0002433
:10318000FEF762FE204638BD0124F9E7E02F01205A
:103190009C2F0120014B01221A607047E42F01206F
:1031A000054B1B6833B1054B1B680BB10020704702
:1031B0000220704701207047B42F0120602F0120AA
:1031C000002845D038B50446C36A224A1268D26A3C
:1031D000934214D28269002A05DB1E4A1268D26A21
:1031E000C2F105028261616903EB83031A4A02EBB3
:1031F0008303994204D0174B1B68DB6AE36238BD36
:10320000251D2846FEF770FF90B1124B1B68D86A47
:10321000E06201238340114A11680B43136000EB05
:10322000800029460C4B03EB8000FEF739FFE6E7F0
:10323000E36A03EB8301084A52F82120002AE4D113
:1032400001229A4005490B6823EA02030B60DCE780
:10325000704700BFE42E0120F02E0120682F0120CE
:1032600000284CD038B50446274B1B68834208D051
:103270004FF0500383F31188BFF36F8FBFF34F8F6D
:10328000FEE7C36C43B94FF0500383F31188BFF3DB
:103290006F8FBFF34F8FFEE7013BC364C16A826C3F
:1032A00091422ED00BB1002038BD051D2846FEF7F7
:1032B0001BFF70B9E26A02EB8201144B53F8213014
:1032C0003BB9012303FA02F211490B6823EA020316
:1032D0000B60A06CE062C0F10503A361012404FA55
:1032E00000F30B4A11680B43136000EB8000294682
:1032F000064B03EB8000FEF7D3FE2046D4E7002008
:1033000070470020D0E700BFE42E0120F02E0120FE
:10331000682F0120054B1B6823B1044B1A68D36C3E
:103320000133D364014B1868704700BFE42E0120BD
:10333000064B1A681368B3FA83F35B09036013B989
:10334000D368186870470020704700BFE82F01203D
:1033500008B54160006191420CD8D21A83699A4243
:1033600001D3012008BD011D094B1868FEF7A3FE1B
:103370000020F7E79A4201D2994206D2011D054B7F
:103380001868FEF798FE0020ECE70120EAE700BF8E
:10339000EC2F0120E82F012038B5FEF733FD0F4B4D
:1033A0001B6813B1FEF750FD38BD0D4D2846FEF7E2
:1033B00069FE0C4C2046FEF765FE0B4B1D600B4B67
:1033C0001C6000220C210A20FEF793FF034B1860BB
:1033D0000028E7D00649FFF727FAE3E71C30012071
:1033E000F02F012004300120E82F0120EC2F0120D4
:1033F000945200082DE9F041079F41B94FF0500366
:1034000083F31188BFF36F8FBFF34F8FFEE706463C
:1034100015461C4688465FB1FFF7BEFF3E60C7F801
:103420001880FD613C62069B7B62381DFEF735FE0D
:10343000BDE8F08100B583B0FFF7AEFF0D4B1B6810
:103440005BB10D4B01930223009300234FF4827272
:103450000A490B48FFF76AFB40B94FF0500383F36A
:103460001188BFF36F8FBFF34F8FFEE703B05DF896
:1034700004FB00BF1C300120203001209C520008BA
:103480007D3700082DE9F04182B004468846154694
:103490001E462C20FEF7A0FB074640B10190089B7A
:1034A000009333462A4641462046FFF7A3FF38469D
:1034B00002B0BDE8F0810000B8B19C460346184850
:1034C000006858B300B585B00191029203930529B5
:1034D0001CDCFFF765FE022810D000231A4601A964
:1034E0000F480068FEF729FF15E04FF0500383F303
:1034F0001188BFF36F8FBFF34F8FFEE70023069A4B
:1035000001A907480068FEF718FF04E0002362469F
:1035100001A9FEF7EDFF05B05DF804FB0020704740
:103520001C30012070B582B01A4B1B681A6852B368
:10353000DB681E68DC68251D2846FEF7D5FD636A3A
:1035400020469847E369012BEED1A36933449E429C
:1035500007D26360246129460E4B1868FEF7ABFD65
:10356000E2E7002100910B4632462046FFF7A4FF18
:103570000028D9D14FF0500383F31188BFF36F8F28
:10358000BFF34F8FFEE7044A1068024908601360DA
:1035900002B070BDE82F0120EC2F012038B50546A0
:1035A000FFF740FB0446074B1B68834205D8002306
:1035B0002B60044B1C60204638BDFFF7B3FF01238E
:1035C0002B60F6E71830012070B582B006460D4634
:1035D00014490968C968CC68201DFEF785FDE169BA
:1035E000012904D0636A2046984702B070BDA169E2
:1035F00033462A4631442046FFF7AAFE0028F1D080
:10360000002100910B4632462046FFF755FF002867
:10361000E8D14FF0500383F31188BFF36F8FBFF3EE
:103620004F8FFEE7E82F012070B582B006460C46AA
:10363000FFF7F0FA01A8FFF7B1FF019B2BBB05468E
:103640000CB9B0421AD22CB1124B1B681C68B4FAE8
:1036500084F464092246711B0F4B1868FFF7F8F8D1
:10366000FFF77AFB98B94FF0E0234FF08052C3F890
:10367000042DBFF34F8FBFF36F8F08E0FFF76CFB94
:1036800029463046FFF7A0FF01E0FFF765FB02B0D7
:1036900070BD00BFEC2F01201C30012010B586B09A
:1036A00000231A4603A934480068FEF7E0FF00280B
:1036B00060D0039B002BF3DB059C636913B1201DD5
:1036C000FEF712FD02A8FFF769FF039B092BE7D85D
:1036D00001A252F823F000BF0137000801370008AB
:1036E00001370008A1360008473700086D37000889
:1036F0000137000801370008A136000847370008E5
:10370000049BA169024619442046FFF721FE0028C8
:10371000C6D0636A20469847E369012BC0D1A269ED
:10372000002100910B46049802442046FFF7C4FE96
:103730000028B5D14FF0500383F31188BFF36F8F8A
:10374000BFF34F8FFEE70499A16131B103460246F2
:1037500001442046FFF7FCFDA2E74FF0500383F33E
:103760001188BFF36F8FBFF34F8FFEE72046FEF740
:10377000B5FA95E706B010BD1C30012000B583B046
:1037800001A8FFF7D5FD0199FFF74EFFFFF786FF70
:10379000F6E740B110B50446FEF734FB246AFEF7A5
:1037A00053FB204610BD4FF0500383F31188BFF345
:1037B0006F8FBFF34F8FFEE781F0004102E000BF43
:1037C00083F0004330B54FEA41044FEA430594EAE1
:1037D000050F08BF90EA020F1FBF54EA000C55EA1C
:1037E000020C7FEA645C7FEA655C00F0E2804FEAED
:1037F0005454D4EB5555B8BF6D420CDD2C4480EACF
:10380000020281EA030382EA000083EA010180EAFE
:10381000020281EA0303362D88BF30BD11F0004F4C
:103820004FEA01314FF4801C4CEA113102D0404282
:1038300061EB410113F0004F4FEA03334CEA1333BD
:1038400002D0524263EB430394EA050F00F0A780D5
:10385000A4F10104D5F1200E0DDB02FA0EFC22FAD0
:1038600005F2801841F1000103FA0EF2801843FAC4
:1038700005F359410EE0A5F120050EF1200E012AB5
:1038800003FA0EFC28BF4CF0020C43FA05F3C018F3
:1038900051EBE37101F0004507D54FF0000EDCF16C
:1038A000000C7EEB00006EEB0101B1F5801F1BD315
:1038B000B1F5001F0CD349085FEA30004FEA3C0C19
:1038C00004F101044FEA445212F5800F80F09A800F
:1038D000BCF1004F08BF5FEA500C50F1000041EB13
:1038E000045141EA050130BD5FEA4C0C404141EB17
:1038F0000101013C28BFB1F5801FE9D291F0000F12
:1039000004BF01460020B1FA81F308BF2033A3F1C0
:103910000B03B3F120020CDA0C3208DD02F1140CB7
:10392000C2F10C0201FA0CF021FA02F10CE002F1F2
:103930001402D8BFC2F1200C01FA02F120FA0CFCEB
:10394000DCBF41EA0C019040E41AA2BF01EB045134
:10395000294330BD6FEA04041F3C1CDA0C340EDC32
:1039600004F11404C4F1200220FA04F001FA02F375
:1039700040EA030021FA04F345EA030130BDC4F133
:103980000C04C4F1200220FA02F001FA04F340EA28
:103990000300294630BD21FA04F0294630BD94F0D9
:1039A000000F83F4801306BF81F480110134013DC0
:1039B0004EE77FEA645C18BF7FEA655C29D094EA31
:1039C000050F08BF90EA020F05D054EA000C04BFAF
:1039D0001946104630BD91EA030F1EBF002100209A
:1039E00030BD5FEA545C05D14000494128BF41F039
:1039F000004130BD14F580043CBF01F5801130BD9D
:103A000001F0004545F0FE4141F470014FF0000027
:103A100030BD7FEA645C1ABF194610467FEA655CD8
:103A20001CBF0B46024650EA013406BF52EA03357A
:103A300091EA030F41F4002130BD00BF90F0000F68
:103A400004BF0021704730B54FF4806404F13204A4
:103A50004FF000054FF0000150E700BF90F0000F5D
:103A600004BF0021704730B54FF4806404F1320484
:103A700010F0004548BF40424FF000013EE700BF54
:103A800042004FEAE2014FEA31014FEA02701FBFE4
:103A900012F07F4393F07F4F81F06051704732F016
:103AA0007F4208BF704793F07F4F04BF41F400216D
:103AB000704730B54FF4607401F0004521F00041CB
:103AC0001CE700BF50EA010208BF704730B54FF055
:103AD00000050AE050EA010208BF704730B511F056
:103AE000004502D5404261EB41014FF4806404F18E
:103AF00032045FEA915C3FF4D8AE4FF003025FEA14
:103B0000DC0C18BF03325FEADC0C18BF033202EB97
:103B1000DC02C2F1200300FA03FC20FA02F001FAF1
:103B200003FE40EA0E0021FA02F11444BDE600BF94
:103B300070B54FF0FF0C4CF4E06C1CEA11541DBF43
:103B40001CEA135594EA0C0F95EA0C0F00F0DEF80E
:103B50002C4481EA030621EA4C5123EA4C5350EAF3
:103B6000013518BF52EA033541F4801143F4801344
:103B700038D0A0FB02CE4FF00005E1FB02E506F0D5
:103B80000042E0FB03E54FF00006E1FB03569CF02A
:103B9000000F18BF4EF0010EA4F1FF04B6F5007F30
:103BA00064F5407404D25FEA4E0E6D4146EB0606A2
:103BB00042EAC62141EA55514FEAC52040EA5E502B
:103BC0004FEACE2EB4F1FD0C88BFBCF5E06F1ED8D5
:103BD000BEF1004F08BF5FEA500E50F1000041EB0C
:103BE000045170BD06F0004646EA010140EA0200B9
:103BF00081EA0301B4EB5C04C2BFD4EB0C0541EADB
:103C0000045170BD41F480114FF0000E013C00F3EF
:103C1000AB8014F1360FDEBF002001F0004170BD13
:103C2000C4F10004203C35DA0C341BDC04F114042C
:103C3000C4F1200500FA05F320FA04F001FA05F2B8
:103C400040EA020001F0004221F0004110EBD37085
:103C500021FA04F642EB06015EEA430E08BF20EAB1
:103C6000D37070BDC4F10C04C4F1200500FA04F354
:103C700020FA05F001FA04F240EA020001F00041E6
:103C800010EBD37041F100015EEA430E08BF20EA59
:103C9000D37070BDC4F1200500FA05F24EEA020EA1
:103CA00020FA04F301FA05F243EA020321FA04F0D0
:103CB00001F0004121FA04F220EA020000EBD37087
:103CC0005EEA430E08BF20EAD37070BD94F0000F87
:103CD0000FD101F00046400041EB010111F4801FBB
:103CE00008BF013CF7D041EA060195F0000F18BF6C
:103CF000704703F00046520043EB030313F4801FA8
:103D000008BF013DF7D043EA0603704794EA0C0F61
:103D10000CEA135518BF95EA0C0F0CD050EA410677
:103D200018BF52EA4306D1D181EA030101F00041F4
:103D30004FF0000070BD50EA410606BF104619461C
:103D400052EA430619D094EA0C0F02D150EA013628
:103D500013D195EA0C0F05D152EA03361CBF104669
:103D600019460AD181EA030101F0004141F0FE4108
:103D700041F470014FF0000070BD41F0FE4141F48C
:103D8000780170BD70B54FF0FF0C4CF4E06C1CEA8C
:103D900011541DBF1CEA135594EA0C0F95EA0C0F41
:103DA00000F0A7F8A4EB050481EA030E52EA0335FC
:103DB0004FEA013100F088804FEA03334FF080551D
:103DC00045EA131343EA12634FEA022245EA11154A
:103DD00045EA10654FEA00260EF000419D4208BFFB
:103DE000964244F1FD0404F5407402D25B084FEAA8
:103DF0003202B61A65EB03055B084FEA32024FF454
:103E000080104FF4002CB6EB020E75EB030E22BFB0
:103E1000B61A754640EA0C005B084FEA3202B6EB70
:103E2000020E75EB030E22BFB61A754640EA5C001F
:103E30005B084FEA3202B6EB020E75EB030E22BFAF
:103E4000B61A754640EA9C005B084FEA3202B6EBB0
:103E5000020E75EB030E22BFB61A754640EADC006F
:103E600055EA060E18D04FEA051545EA16754FEAD1
:103E700006164FEAC30343EA52734FEAC2025FEAEF
:103E80001C1CC0D111F4801F0BD141EA00014FF07E
:103E900000004FF0004CB6E711F4801F04BF01434F
:103EA0000020B4F1FD0C88BFBCF5E06F3FF6AFAE6B
:103EB000B5EB030C04BFB6EB020C5FEA500C50F1FB
:103EC000000041EB045170BD0EF0004E4EEA11317E
:103ED00014EB5C04C2BFD4EB0C0541EA045170BD85
:103EE00041F480114FF0000E013C90E645EA060EC9
:103EF0008DE60CEA135594EA0C0F08BF95EA0C0FF7
:103F00003FF43BAF94EA0C0F0AD150EA01347FF43E
:103F100034AF95EA0C0F7FF425AF104619462CE715
:103F200095EA0C0F06D152EA03353FF4FDAE104678
:103F3000194622E750EA410618BF52EA43067FF4C9
:103F4000C5AE50EA41047FF40DAF52EA43057FF459
:103F5000EBAE12E74FF0FF3C06E000BF4FF0010C64
:103F600002E000BF4FF0010C4DF804CD4FEA410CC8
:103F70007FEA6C5C4FEA430C18BF7FEA6C5C1BD095
:103F800001B050EA410C0CBF52EA430C91EA030F16
:103F900002BF90EA020F0020704710F1000F91EA73
:103FA000030F58BF994208BF90422CBFD8176FEA41
:103FB000E37040F0010070474FEA410C7FEA6C5C0F
:103FC00002D150EA013C07D14FEA430C7FEA6C5C16
:103FD000D6D152EA033CD3D05DF8040B704700BF42
:103FE0008446104662468C461946634600E000BF90
:103FF00001B5FFF7B7FF002848BF10F1000F01BD62
:104000004DF808EDFFF7F4FF0CBF012000205DF82C
:1040100008FB00BF4DF808EDFFF7EAFF34BF0120B1
:1040200000205DF808FB00BF4DF808EDFFF7E0FF4A
:1040300094BF012000205DF808FB00BF4DF808ED9B
:10404000FFF7CEFF94BF012000205DF808FB00BF02
:104050004DF808EDFFF7C4FF34BF012000205DF8E4
:1040600008FB00BF53B94AB9002908BF00281CBF8C
:104070004FF0FF314FF0FF3000F074B9ADF1080C94
:104080006DE904CE00F006F8DDF804E0DDE9022376
:1040900004B070472DE9F047089D04468E46002B7A
:1040A0004DD18A42944669D9B2FA82F252B101FAEC
:1040B00002F3C2F1200120FA01F10CFA02FC41EAFC
:1040C000030E94404FEA1C48210CBEFBF8F61FFA81
:1040D0008CF708FB16E341EA034306FB07F199421C
:1040E0000AD91CEB030306F1FF3080F01F819942CF
:1040F00040F21C81023E63445B1AA4B2B3FBF8F0A9
:1041000008FB103344EA034400FB07F7A7420AD92F
:104110001CEB040400F1FF3380F00A81A74240F257
:1041200007816444023840EA0640E41B00261DB1C2
:10413000D4400023C5E900433146BDE8F0878B42F7
:1041400009D9002D00F0EF800026C5E900013046B6
:104150003146BDE8F087B3FA83F6002E4AD18B4290
:1041600002D3824200F2F980841A61EB030301203A
:104170009E46002DE0D0C5E9004EDDE702B9FFDE26
:10418000B2FA82F2002A40F09280A1EB0C014FEAD1
:104190001C471FFA8CFE0126200CB1FBF7F307FB2E
:1041A000131140EA01410EFB03F0884208D91CEBD1
:1041B000010103F1FF3802D2884200F2CB8043466E
:1041C000091AA4B2B1FBF7F007FB101144EA01444D
:1041D0000EFB00FEA64508D91CEB040400F1FF31DC
:1041E00002D2A64500F2BB800846A4EB0E0440EACA
:1041F00003409CE7C6F12007B34022FA07FC4CEAD3
:10420000030C20FA07F401FA06F31C43F9404FEAC5
:104210001C4900FA06F3B1FBF9F8200C1FFA8CFEDA
:1042200009FB181140EA014108FB0EF0884202FA2E
:1042300006F20BD91CEB010108F1FF3A80F08880EF
:10424000884240F28580A8F102086144091AA4B2AC
:10425000B1FBF9F009FB101144EA014100FB0EFE2D
:104260008E4508D91CEB010100F1FF346CD28E455C
:104270006AD90238614440EA0840A0FB0294A1EBED
:104280000E01A142C846A64656D353D05DB1B3EB4A
:10429000080261EB0E0101FA07F722FA06F3F1407A
:1042A0001F43C5E9007100263146BDE8F087C2F121
:1042B0002003D8400CFA02FC21FA03F39140014399
:1042C0004FEA1C471FFA8CFEB3FBF7F007FB1036D2
:1042D0000B0C43EA064300FB0EF69E4204FA02F47E
:1042E00008D91CEB030300F1FF382FD29E422DD9D1
:1042F000023863449B1B89B2B3FBF7F607FB163306
:1043000041EA034106FB0EF38B4208D91CEB010185
:1043100006F1FF3816D28B4214D9023E6144C91A05
:1043200046EA004638E72E46284605E70646E3E615
:104330001846F8E64B45A9D2B9EB020864EB0C0E1F
:104340000138A3E74646EAE7204694E74046D1E72E
:10435000D0467BE7023B614432E7304609E76444DC
:10436000023842E7704700BF014B1868704700BF32
:104370001400002070477047024B0146186800F097
:104380006DB800BF14000020024B0146186800F011
:1043900019B800BF140000200A44914200F1FF3315
:1043A00000D1704710B511F8014B03F8014F91424D
:1043B000F9D110BD02440346934200D1704703F87F
:1043C000011BF9E737B5002944D051F8043C0190AE
:1043D000002BA1F10404B8BFE41800F08DF91E4AC7
:1043E0000198136833B96360146003B0BDE83040CE
:1043F00000F088B9A34208D9256861198B4201BF32
:1044000019685B6849192160EDE71A465B680BB1D2
:10441000A342FAD911685518A5420BD1246821444A
:104420005418A3421160E0D11C685B6853602144BA
:104430001160DAE702D90C230360D6E72568611919
:104440008B4204BF19685B68636004BF491921602F
:104450005460CAE703B030BD28300120F8B5CD1C48
:1044600025F0030508350C2D38BF0C25002D064618
:1044700001DBA94203D90C2333600020F8BD00F012
:104480003BF921490A6814469CB9204F3B6823B97F
:104490002146304600F0A8F838602946304600F042
:1044A000A3F8431C23D10C233360304600F02AF9D3
:1044B000E3E723685B1B17D40B2B03D923601C4451
:1044C000256004E06368A2420CBF0B605360304675
:1044D00000F018F904F10B00231D20F00700C21AA8
:1044E000CCD01B1AA350C9E722466468CCE7C41C91
:1044F00024F00304A042E3D0211A304600F074F8FF
:104500000130DDD1CFE700BF283001202C30012061
:1045100038B5104B1D68AB6B0446B3B91820FFF7D4
:104520002BFF0246A86320B90B4B0C484221FCF735
:1045300041FC0B490B4BC0E900130B4B83600B2371
:10454000838100210120C2E90401AB6B00221C61C0
:104550005A6138BD14000020085400081F54000898
:104560000E33CDAB34126DE6ECDE0500164B10B504
:104570001C68A36BB3B91820FFF7FEFEA06328B92F
:104580000246124B12484E21FCF714FC114A124B02
:10459000C0E90023114B83600B2383810122002398
:1045A000C0E90423A46B0E4A206963690D494243A4
:1045B00001FB0322A0FB0101431C42EB0100C4E903
:1045C000043020F0004010BD140000200854000802
:1045D0001F5400080E33CDAB34126DE6ECDE05003F
:1045E0002DF451582D7F954C38B5064D00230446C7
:1045F00008462B60FCF704FC431C02D12B6803B176
:10460000236038BD0001002010F8012B11F8013B98
:10461000012A28BF9A42F7D0D01A7047034613F8F0
:10462000012B002AFBD1181A013870471FB50B4B1C
:10463000002269460446186800F04CF80028BEBF06
:104640004FF0FF324FF0FF33CDE90023DDE90001E9
:104650000CB1C4E9000104B010BD00BF140000207B
:1046600030B51446002C9BB005461A4605DA8B235C
:1046700003604FF0FF301BB030BD4FF40273ADF854
:104680000C3014BF04F1FF332346029305934FF619
:10469000FF7300910491ADF80E3069461E9B00F047
:1046A00093F8431CBCBF8B232B60002CE3D0009BF2
:1046B00000221A70DFE7000007B5009313460A4690
:1046C000014603480068FFF7CBFF03B05DF804FB29
:1046D0001400002038B5074D002304460846114653
:1046E0002B60FCF773FC431C02D12B6803B12360E1
:1046F00038BD00BF000100200148FFF73BBE00BFEE
:10470000243001200148FFF736BE00BF24300120CD
:104710002DE9F0478E689E4282460C4690461F4621
:1047200038D88A8912F4906F32D025680969A5EBD0
:104730000109656905EB450505EBD57501334B446A
:104740006D109D4238BF1D46530531D52946FFF7F0
:1047500085FE064650B90C23CAF80030A38943F001
:104760004003A3814FF0FF30BDE8F08721694A463E
:10477000FFF712FEA38923F4906343F08003A38123
:10478000266165614E44A5EB09052660A5603E469D
:10479000BE4200D93E4620683246414600F0F8FA53
:1047A000A3689B1BA3602368334423600020DBE7DE
:1047B0002A4600F007FB06460028E1D12169504651
:1047C000FFF700FEC7E700002DE9F04F98468B8900
:1047D0001B069DB007460D4614460ED50B6963B9FE
:1047E0004021FFF73BFE2860286120B90C233B6085
:1047F0004FF0FF30D1E040236B6100230993202369
:104800008DF82930CDF80C803023DFF8A8818DF8A1
:104810002A304FF0010923469A4613F8012B0AB1BA
:10482000252AF9D1BAEB040B0BD05B462246294668
:104830003846FFF76DFF013000F0AA80099A5A440C
:1048400009929AF80030002B00F0A28000234FF06C
:10485000FF32CDE905230AF1010A049307938DF88D
:1048600053301A935446052214F8011B514800F0A6
:104870003FFA049AD8B9D00644BF20238DF85330AC
:10488000110744BF2B238DF853309AF800302A2BA0
:1048900015D0079A544600204FF00A0C214611F813
:1048A000013B303B092B4ED9B0B1079214E0A0EB8D
:1048B000080309FA03F313430493A246D2E7039BC8
:1048C000191D1B680391002BBBBF5B4242F0020223
:1048D00007930793B8BF049223782E2B0CD16378EB
:1048E0002A2B35D1039B1A1D1B680392002BB8BFDE
:1048F0004FF0FF3302340593DFF8C8A0217803227C
:10490000504600F0F5F940B14023A0EB0A0003FA4D
:1049100000F0049B03430134049314F8011B264860
:104920008DF82810062200F0E3F9002838D0234B38
:104930001BBB039B073323F0070308330393099B37
:104940003344099367E70CFB02320C460120A5E7CC
:1049500000230134059319464FF00A0C204610F845
:10496000012B303A092A03D9002BC5D00591C3E7A2
:104970000CFB012104460123F0E703AB00932A4618
:104980000F4B04A93846AFF30080421C0646D6D12F
:10499000AB895B063FF52CAF09981DB0BDE8F08FE1
:1049A00003AB00932A46064B04A9384600F07AF878
:1049B000EBE700BF795400088354000800000000B2
:1049C000114700087F5400082DE9F0471646994624
:1049D0008A680B69DDF820809342B8BF13463360C4
:1049E00091F8432007460C460AB10133336023682F
:1049F000990642BF336802333360256815F0060517
:104A000006D104F1190AE36832689B1AAB4226DC2E
:104A100094F84320131E226818BF012392062BD45A
:104A200004F1430249463846C04701301ED023688E
:104A3000E568326803F00603042B08BFAD1AA368CB
:104A400022690CBF25EAE57500259342C4BF9B1A75
:104A5000ED1800261A34B5421AD1002008E00123CF
:104A6000524649463846C047013003D14FF0FF3027
:104A7000BDE8F0870135C6E7E1185A1C302081F8FF
:104A80004300224494F8451082F843100233C7E7EC
:104A90000123224649463846C0470130E6D0013658
:104AA000D9E700002DE9FF470F7E0C9D782F914636
:104AB00080460C469A4601F1430207D8622F0AD875
:104AC000002F00F0D880582F00F0A38004F1420599
:104AD00084F842703AE0A7F16303152BF6D801A1E0
:104AE00051F823F03D4B0008514B0008CD4A000817
:104AF000CD4A0008CD4A0008CD4A0008514B0008B5
:104B0000CD4A0008CD4A0008CD4A0008CD4A000829
:104B10005D4C0008814B00083F4C0008CD4A00085E
:104B2000CD4A00087F4C0008CD4A0008814B0008A0
:104B3000CD4A0008CD4A0008474C00082B681A1DD2
:104B40001B682A6004F1420584F842300123A3E087
:104B500020682968060601F104030AD50E682B6057
:104B6000002E03DA2D23764284F843305E480A2370
:104B700019E00E682B6010F0400F18BF36B2EFE757
:104B80002B682068191D2960010601D51E6802E006
:104B90004606FBD51E8854486F2F0CBF08230A23F6
:104BA000002184F843106568A560002DA2BF21682C
:104BB00021F0040121600EB9002D4DD01546B6FB41
:104BC000F3F103FB1167C75D05F8017D3746BB4272
:104BD0000E46F4D9082B0BD12368DE0708D52369CC
:104BE00061689942DEBF302305F8013C05F1FF35CD
:104BF000521B2261CDF800A04B4603AA2146404635
:104C0000FFF7E2FE01304CD14FF0FF3004B0BDE8B9
:104C1000F087354881F845702968236851F8046B9E
:104C200029601D0614D5DF0744BF43F0200323602D
:104C30001EB9236823F0200323601023B0E7236804
:104C400043F0200323607823284884F84530E3E7C5
:104C5000590648BFB6B2E6E71546BBE72B6826689B
:104C60006169181D286035061B6801D5196002E0CE
:104C70007006FBD51980002323611546BAE72B681F
:104C80001A1D2A601D6862680021284600F030F86D
:104C900008B1401B606063682361002384F84330DF
:104CA000A8E723692A4649464046D0470130ABD0A1
:104CB00023689B0713D4E068039B9842B8BF18464B
:104CC000A4E70123324649464046D04701309BD0F5
:104CD0000135E36803995B1AAB42F2DCEBE7002590
:104CE00004F11906F5E700BF8A5400089B54000838
:104CF00001F0FF01102A2BDB10F0070F08D010F88D
:104D0000013B013A8B422DD010F0070F42B3F6D190
:104D1000F0B441EA012141EA014122F007047FF0A9
:104D200000070023F0E80256083C85EA010586EA00
:104D3000010685FA47F5A3FA87F586FA47F6A5FA3C
:104D400087F68EB9EED1F0BC01F0FF0102F0070248
:104D500032B110F8013B013A83EA010313B1F8D1F3
:104D60000020704701387047002D06BF35460338D4
:104D7000073815F0010F07D1013015F4807F02BF0D
:104D8000013015F4C03F0130F0BC0138704700BF5E
:104D9000884210B501EB020402D98442234607D8A9
:104DA000431EA14208D011F8012B03F8012FF8E7A8
:104DB000024401468A4200D110BD13F8014D02F8A9
:104DC000014DF7E7F8B5074614460E4621B9BDE890
:104DD000F8401146FFF742BB22B9FFF7F3FA254628
:104DE0002846F8BD00F014F8A0420FD221463846FC
:104DF000FFF734FB05460028F2D031462246FFF784
:104E0000CBFA31463846FFF7DDFAE9E73546E7E702
:104E100051F8043C181F002BBCBF0B58C01870473A
:104E20002E2E2F73797374656D2F7372632F7374C5
:104E30006D333266342D68616C2F73746D33326656
:104E40003478785F68616C5F636F727465782E6325
:104E5000000000002E2E2F73797374656D2F73720E
:104E6000632F73746D333266342D68616C2F7374E5
:104E70006D3332663478785F68616C5F7263632E7D
:104E8000630000002C2066756E6374696F6E3A20B3
:104E900000000000617373657274696F6E202225D3
:104EA0007322206661696C65643A2066696C6520CE
:104EB000222573222C206C696E65202564257325BC
:104EC000730A000061626F727428292C206578696A
:104ED00074696E672E2E2E003A74740053746163E9
:104EE0006B206672616D653A0A0000002052302026
:104EF0003D2020253038580A000000002052312083
:104F00003D2020253038580A000000002052322071
:104F10003D2020253038580A000000002052332060
:104F20003D2020253038580A000000002052313240
:104F3000203D20253038580A00000000204C522027
:104F40003D2020253038580A000000002050432022
:104F50003D2020253038580A0000000020505352D0
:104F6000203D20253038580A000000004653522FBB
:104F70004641523A0A0000002043465352203D2049
:104F800020253038580A00002048465352203D2042
:104F900020253038580A00002044465352203D2036
:104FA00020253038580A00002041465352203D2029
:104FB00020253038580A0000204D4D464152203DF2
:104FC00020253038580A00002042464152203D201A
:104FD00020253038580A00004D6973630A0000002C
:104FE000204C522F4558435F52455455524E3D2058
:104FF000253038580A0000005B48617264466175CC
:105000006C745D0A000000005B4275734661756C4C
:10501000745D0A005B55736167654661756C745D0C
:105020000A0000000000000000000000010203046C
:105030000607080957726F6E6720706172616D65AF
:10504000746572732076616C75653A2066696C656B
:10505000202573206F6E206C696E652025640D0A13
:1050600000000000426567696E6E696E67206F66BA
:105070002053656E646572205461736B00000000FC
:10508000426567696E6E696E67206F662052656360
:105090006569766572205461736B00000A0A4E6F71
:1050A00064652025643A20526563656976656420ED
:1050B00025642066726F6D202564204E6F202325A5
:1050C000640A000052656365697665643A20256468
:1050D0002C204C6F73743A20256400005265636580
:1050E000697665643A2025642C204C6F73743A20ED
:1050F00025640A0A000000000A2A2A5375737065A5
:105100006E646564204E6F64652025642E2E2E50DB
:1051100072696E74696E67204E6F646520537461A6
:10512000746973746963732E2E2E2E0A00000000BA
:105130000A546F74616C205061636B6574732066F0
:10514000726F6D20313A2025640A0000546F74613B
:105150006C2052656365697665642066726F6D20A8
:10516000313A2025640A0000546F74616C204C6F42
:1051700073742066726F6D20313A2025640A000036
:105180000A546F74616C205061636B6574732066A0
:10519000726F6D20323A2025640A0000546F7461EA
:1051A0006C2052656365697665642066726F6D2058
:1051B000323A2025640A0000546F74616C204C6FF1
:1051C00073742066726F6D20323A2025640A0000E5
:1051D0000A0A526F757465722044726F707065644C
:1051E000205061636B65742E2E2E0A004E6F64652D
:1051F00020312053656E6465720000004E6F646557
:1052000020322053656E646572000000526F757421
:1052100065722044656C61792054696D6572000087
:105220004E6F6465203100004E6F646520320000CF
:105230004E6F6465203300004E6F646520340000BB
:10524000526F7574657200005374617274696E6791
:10525000205363686564756C65720A004572726FED
:1052600072204372656174696E67205461736B7359
:10527000000000004572726F7220437265617469AC
:105280006E672051756575657300000049444C4593
:1052900000000000546D725100000000546D722037
:1052A0005376630000202020202020202020282862
:1052B00028282820202020202020202020202020D6
:1052C0002020202020881010101010101010101016
:1052D0001010101010040404040404040404041046
:1052E00010101010101041414141414101010101D4
:1052F000010101010101010101010101010101019E
:1053000010101010101042424242424202020202A9
:10531000020202020202020202020202020202026D
:10532000101010102000000000000000000000001D
:10533000000000000000000000000000000000006D
:10534000000000000000000000000000000000005D
:10535000000000000000000000000000000000004D
:10536000000000000000000000000000000000003D
:10537000000000000000000000000000000000002D
:10538000000000000000000000000000000000001D
:10539000000000000000000000000000000000000D
:1053A00000000000000000000000000000000000FD
:1053B00000000000000000000000000000000000ED
:1053C00000000000000000000000000000000000DD
:1053D00000000000000000000000000000000000CD
:1053E00000000000000000000000000000000000BD
:1053F00000000000000000000000000000000000AD
:1054000000000000000000005245454E54206D6130
:105410006C6C6F6320737563636565646564002FEE
:10542000486F73742F686F6D652F696C672F576FA6
:10543000726B2F61726D2D6E6F6E652D6561626985
:105440002D6763632D31302E322E312D312E312FC9
:10545000736F75726365732F6E65776C69622F6EFB
:1054600065776C69622F6C6962632F7374646C6911
:10547000622F72616E642E6300232D302B20006832
:105480006C4C006566674546470030313233343531
:10549000363738394142434445460030313233349F
:0C54A00035363738396162636465660098
:0854AC00E8EBFF7F01000000A6
:1054B4007856341201FFFFFF100000000024F400AE
:1054C400AAAAAAAA1800002000000000C8530008D5
:1054D400E8530008A8530008000000000000000082
:1054E40000000000000000000000000000000000B8
:1054F40000000000000000000000000000000000A8
:105504000000000000000000000000000000000097
:105514000000000000000000000000000000000087
:0C552400000000000000000032547698E7
:040000050800018965
:00000001FF
